:020000040800F2
:10000000A007002045010008F7350008CF2D0008A3
:10001000F5350008A10F000831530008000000006A
:100020000000000000000000000000008D3D0008FE
:10003000A30F0008000000002D370008B33E0008A1
:100040005F0100085F0100085F0100085F01000810
:100050005F0100085F0100085F0100085F01000800
:100060005F0100085F010008A50F00085F0100089C
:100070005F0100085F0100085F0100085F010008E0
:100080005F0100085F0100085F0100085F010008D0
:100090005F0100085F0100085F010008AB0F000866
:1000A0005F0100085F0100085F0100085F010008B0
:1000B0005F0100085F0100085F0100085F010008A0
:1000C0005F0100085F0100085F0100085F01000890
:1000D0005F010008255300085F0100085F01000868
:1000E0005F0100085F0100085F0100085F01000870
:1000F0005F0100085F0100085F0100085F01000860
:100100005F0100085F0100085F0100085F0100084F
:100110005F0100085F0100085F0100085F0100083F
:100120005F0100085F0100085F0100085F0100082F
:10013000DFF80CD000F0F4FC00480047BD5E00087A
:10014000A00700200648804706480047FEE7FEE774
:10015000FEE7FEE7FEE7FEE7FEE7FEE7FEE7FEE777
:10016000153F000831010008202A04DB203A21FA5B
:1001700002F00021704721FA02F3D040C2F12002C0
:10018000914008431946704740EA01039B0703D09A
:1001900009E008C9121F08C0042AFAD203E011F8C6
:1001A000013B00F8013B521EF9D27047D2B201E088
:1001B00000F8012B491EFBD270470022F6E710B56C
:1001C00013460A4604461946FFF7F0FF204610BDC5
:1001D00030B505462A460B4612F8010B13F8014BC1
:1001E00008B1A042F8D01CB1002802D06D1CF1E784
:1001F000284630BD421C10F8011B0029FBD1801A93
:10020000704710B5002200E0521C835C8C5CA34256
:1002100001D1002BF8D1D8B2E1B2401A10BD30B5EF
:1002200005460020034600E05B1C934205D2EC5CCF
:10023000C85C201A01D1002CF6D130BD0FB400B536
:100240008DB010A909900B9000914FF0FF300A90EB
:1002500000200C9005480690054807906A4609A8BA
:100260000F9900F011FA0DB05DF814FBA506000817
:10027000C30600082DE9FF5F1D464FF0FF3BD5E99F
:10028000014691465F464FF00008A9697F1C01981E
:100290008847296A824688470028F6D1BAF1FF3F8D
:1002A0000CD024F4C064002E19DD600614D5BAF118
:1002B0002B0F09D0BAF12D0F0ED103E0584604B030
:1002C000BDE8F09F44F48064A9697F1C01988847C9
:1002D000761E8246002E02DDBAF1300F03D0B9F14E
:1002E000000F26D032E0A969761E44F400747F1C0A
:1002F000019888478246002E05DDBAF1780F06D0B6
:10030000BAF1580F03D0B9F1000F10D01EE0B9F1C7
:10031000000F02D0B9F1100F18D1A969761E24F48C
:1003200000747F1C019888478246102002E0082054
:1003300000E00A20814609E008FB0908A969761E49
:1003400044F400747F1C019888478246002E05DD26
:100350004946504600F084F90028EDDAE969019831
:100360008847A00502D46FF00100A8E7E00725D177
:10037000600613D5600502D5C8F1000000E04046D4
:1003800029680A1D2A600968220501D5087015E050
:10039000220701D5088011E008600FE02868011DE0
:1003A00029600068210502D580F8008006E0210759
:1003B00002D5A0F8008001E0C0F8008038467EE752
:1003C000F0B480EA0102D40F4200B2EB410F02D236
:1003D0000246084611464A0042D0C30DDDB2C1F3C1
:1003E000C752AD1A202D35DAC1F3160141F40002CF
:1003F00004B15242C5F1200602FA06F12A41104426
:10040000B3EBD05F23D0C4B1012DA0EBC35009DC06
:10041000F0BC4FF0004202EAC352DBB200F500002C
:1004200000F069B9400000F1807000EBC350A0F10A
:10043000807040EAD170490009E0490841EAC07182
:10044000A0EBC35000F50000400800EBC350F0BC27
:1004500000F048B96142012202EB4101001BF6E7BE
:10046000F0BC704781F00041AAE780F00040A7E7A8
:1004700080EA010210B502F00043400022D04A0099
:100480001FD0010E01EB1261C0F35600C2F35602F9
:1004900040F4000042F40002A0FB022000047F3977
:1004A000140400D0401C50EA124001D44000491E00
:1004B000C2B20C0604EBD010401C4008802A02D0C7
:1004C00003E0002010BD20F00100002900DA002028
:1004D000184310BD30B480EA010202F0004530F04C
:1004E000004221F0004013D090B1C30DD40DC2F3EF
:1004F0001601C0F31600E41A41F4000140F40002B2
:100500007D34914201D3641C00E04900002C02DAE2
:1005100030BC002070474FF400000023914201D30B
:10052000891A034340084FEA4101F7D151B1914282
:1005300002D14FF0004105E002D24FF0010101E08D
:100540006FF0010103EBC450284430BC00F0CAB87E
:10055000420005D0C0F3C7525242914201DC002054
:10056000704700EBC1507047C10F80EAE07008444B
:10057000CA079623002100F0BEB896230022114638
:1005800000F0B9B820F00040C10DC0F3160040F4EF
:1005900000007F2901DA00207047962903DCC1F1B1
:1005A0009601C840704796398840704700F0004275
:1005B00030F000400AD0C10D01F56071C0F31600A3
:1005C00042EA0151C208400711437047002001462A
:1005D000704730B50B46014600202022012409E077
:1005E00021FA02F59D4205D303FA02F5491B04FAEC
:1005F00002F52844151EA2F10102F1DC30BD2DE9FF
:10060000F05F0546002092469B4688460646814696
:1006100040241BE02846414647462246FFF7A4FDFA
:1006200053465A46C01A914110D3114618462246E5
:1006300000F088FA2D1A67EB01084F462246012088
:10064000002100F07FFA17EB00094E41201EA4F1B3
:100650000104DFDC484631462A464346BDE8F09FA8
:100660003A2800D2303820F02002412A01D3A2F1EA
:100670003700884201D34FF0FF30704702681144C1
:100680001378016018467047D160044951610449EC
:10069000116200211161114600F07ABA7D0600084E
:1006A000870B0008426842B1016811F8013B23B191
:1006B000521EC0E90012184670470121C160881E11
:1006C000704742685AB1C368016843B983688B4276
:1006D00005D0491E521CC0E90012002070474FF09F
:1006E000FF3070470029A8BF7047401C490008BF71
:1006F00020F00100704710B4B0FA80FC00FA0CF052
:1007000050EA010404BF10BC704749B1CCF1200489
:1007100021FA04F411FA0CF118BF01212143084316
:10072000A3EB0C01CB1D4FEA00614FEA102042BF42
:10073000002010BC704700EBC35010440029A4BF38
:1007400010BC7047401C490008BF20F0010010BCDD
:100750007047F0B4002802DCF0BC00207047C0F302
:10076000C751C0F3160040F40000CA0701D1400091
:10077000491E3F2202EB6105002211464FF400069C
:1007800026FA01F31344D418844201D8001B1A46F8
:100790004000491C1729F3DD5100814202D24FF07D
:1007A000FF3100E0002102EBC550F0BCFFF79ABF1B
:1007B0002DE9FE4F804681EA0300C00F0C460090F1
:1007C00021F0004123F00045B8EB0200A94105D219
:1007D0004046214690461C460B46024623F0004008
:1007E000104347D0270DC7F30A00C3F30A51029004
:1007F000401A019040286BDAC3F3130040F4801BC9
:100800000098924620B10023D2EB030A63EB0B0B56
:1008100001985946C0F14002504600F093F906464F
:100820000D4650465946019A00F09BF910EB08001E
:100830006141002487EA115284EAE7731A4340D0E9
:10084000009A62B3019A012A4FEA075215DC001B95
:1008500061EB02014FF0004202EA0752CDE900428B
:10086000001C41F5801132462B4600F036FB03B0E8
:10087000BDE8F08F40462146F9E7001B61EB02011D
:10088000001C41F5801300185B412018A2F50017E9
:1008900047EB030140EAD570B6196D4111E06D08D0
:1008A0004FEA360645EAC0754FEA0752001B61EB76
:1008B0000201001C41F5801149084FEA300000197F
:1008C000514132462B4603B0BDE8F04F00F0F6BA76
:1008D0000098012240000023D0EB020263EBE0739A
:1008E000009821464FEAE074B8EB000061EB040188
:1008F000E9E783F000435BE781F0004158E72DE929
:10090000FE4F81EA030404F0004421F0004100940A
:100910004FF0000B23F0004350EA01045ED052EA8E
:1009200003045BD0C3F30A54C1F30A552C44A4F268
:10093000F3340194A0FB0254C1F3130141F480117C
:10094000C3F3130343F4801301FB024400FB034E83
:10095000840A970A44EA815447EA8357A4FB07684C
:1009600002958D0A05FB07854FEA932C04FB0C5476
:100970002705029D4FEA065847EA1637B5EB0805EA
:100980006EEB070C870E920E47EA811742EA83123C
:10099000A7FB0201B6EB0B0164EB00042B0D43EA4D
:1009A0000C335E1844EB1C50DA465146E7FB02015B
:1009B000C5F313044FEA0B3343EA14534FEA0432EE
:1009C000019C43EA0603A4F10C040294009CCDE9C7
:1009D00000B400F082FA03B0BDE8F08F00200146B9
:1009E000F9E72DE9F04D81EA030404F0004B21F012
:1009F000004514464FF0000A23F0004150EA05027A
:100A000020D054EA01021DD0C5F30A570246C5F3AF
:100A10001303C1F31300C1F30A5640F4801543F4E5
:100A20008013A7EB0608101BD64608F2FD3873EBBF
:100A3000050002D308F1010801E092185B41B8F10A
:100A4000000F03DA00200146BDE8F08D00204FF4CE
:100A50008011064684460EE0171B73EB050705D38D
:100A6000121B63EB050306434CEA010C49084FEAED
:100A7000300092185B4150EA0107EDD152EA0300C1
:100A800012D082EA040083EA0501084305D0101B56
:100A9000AB4106D20122002306E000224FF00043C2
:100AA00002E06FF0010253101AEB06004CEB085104
:100AB00010EB0A0041EB0B01BDE8F04D00F0FEB970
:100AC000C1F30A52C1F3130140F2FF3341F4801124
:100AD0009A4202DA00200146704740F233439A42BC
:100AE000A2F2334202DC5242FFF73EBB00F02AB8CA
:100AF00030B5041E71F1000404DB4FF000444042A5
:100B000064EB0101141E73F1000405DB1C464FF079
:100B10000043524263EB0403994208BF904230BD48
:100B2000064C074D06E0E06840F0010394E807003A
:100B300098471034AC42F6D3FFF7FEFADC1D0308E9
:100B4000FC1D0308202A04DB203A00FA02F10020F1
:100B500070479140C2F1200320FA03F319439040FB
:100B60007047202A06DBCB17203A41FA02F043EA0D
:100B7000E07306E041FA02F3D040C2F12002914056
:100B8000084319467047C0B24FF4F05100F0F4B971
:100B90002DE9F34F8BB04FF0000801F10C000C462B
:100BA0004FF0010B46460DF1080A019062690121E0
:100BB00001989047051E2DD0252D2CD0216A8847FD
:100BC000C0B16269012101989047216A88470028D5
:100BD000F7D1411E62690198904700E0761CA16937
:100BE0000B988847216A88470028F7D1E1690B985C
:100BF0008847DBE7A1690B9888470746A84201D1DF
:100C0000761CD3E7E1690B9888477F1C02D1B8F1C5
:100C1000000F6FD046E1002762693D4639460198D2
:100C200090472A2804D16269012101989047012543
:100C3000DFF884926269012101989047A0F13001A8
:100C40000A290AD24F45E5DC07EB870100EB410793
:100C5000303FDFD445F01005ECE7E90601D46FF032
:100C600000476C280AD04C2814D0682815D06A2870
:100C70000DD074281CD07A281AD01DE06269012199
:100C8000019890476C2802D045F0040514E045F027
:100C900002050DE045F020050AE062690121019896
:100CA0009047682802D045F0080505E045F4006546
:100CB0006269012101989047C4E9015765283DD038
:100CC00019DC58287AD00CDC452837D004DC2528DC
:100CD00026D0412831D131E046282FD047282CD1C9
:100CE0002CE05B2877D0612828D063287CD064284A
:100CF00023D15AE0D0E06F2848D008DC66281DD008
:100D000067281BD0692821D06E2816D127E07028CB
:100D100045D0732868D0752847D078280DD14DE08C
:100D2000A1690B988847054625283FF469AFE1691A
:100D30000B9888476D1C3FF46AAFB3E023466A46C0
:100D40006FF001000B99AFF300809EE045F040008A
:100D50006060A80723464FF0000236D43EE0E80763
:100D60007FF447AF2068011D21600068290501D587
:100D700006701BE7290701D5068017E7A90703D5E9
:100D8000F117C0E9006111E706600FE745F0400088
:100D90006060A80723464FF0080216D41EE040F614
:100DA0000E0125EA0100606016E045F04000606039
:100DB000A80723464FF00A0207D40FE045F0400091
:100DC0006060A80708D5234610226FF001000B9938
:100DD000AFF3008059E007E0234610226FF00100D6
:100DE0000B99FFF747FA50E04FF000094F464B468A
:100DF000632802D05B2806D040E0E80601D4012039
:100E0000A06001273AE062690121019890475E28BD
:100E100005D14FF00109626949460198904721695F
:100E200039B900210A46534643F82120491C0829B4
:100E3000FADBB0B3216969B9C11700EBD162531174
:100E40000AEB830122F01F02821A01200B689040F6
:100E500003430B6062690121019890475D28E8D146
:100E6000B9F1000F09D00020514651F82020D2439B
:100E700041F82020401C0828F7DB02AB22460097EF
:100E80006FF001000B99AFF3008000280CDA401CD2
:100E900008D1BBF1000F05D04FF0FF300DB0BDE819
:100EA000F08FFFE74046F9E7E90701D108F10108B3
:100EB00006444FF0000B79E6CCCCCC0C10B5141ED8
:100EC00073F1000408DA401C41F1000192185B4103
:100ED0001A4301D120F0010010BD2DE9F04D9246DA
:100EE0009B4611B1B1FA81F202E0B0FA80F22032F1
:100EF0009046FFF727FE04460F4640EA0A0041EA03
:100F00000B0153465A46084313D0114653EA0100D9
:100F100019D0C8F140025046FFF726F905460E46A3
:100F2000504659464246FFF70DFE084305D00120C2
:100F300004E020463946BDE8F08D0020054346EA2E
:100F4000E0762C4337430A986305E40AA0EB0800D7
:100F50000022FD0A44EA47540A3002D50020014627
:100F6000E9E7010510196941DDE908450019694102
:100F7000BDE8F04DA2E700007F2801D9002208E07B
:100F8000064A02EB5002C007127800D1120902F0A3
:100F90000F0201209040084070470000801C0308A9
:100FA000FEE77047102000F0EFBB202000F0ECBB04
:100FB00072B6FEE7034800210170417041600121D3
:100FC000817070473C00002010B508280DD2074CF6
:100FD0002070002060700120A07000F0E7FC6060CD
:100FE000BDE81040002001F079BF10BD3C0000209A
:100FF0007CB500F0DBFC184C164A217832F8113031
:10100000164A525C012A0FD973B16568451B9D428F
:101010000AD363785B1CB3FBF2F502FB15326270F6
:1010200060600120A07002E0A078002811D00C4878
:1010300050F82100617850F8212042B1022350205D
:10104000CDE9002328210346024601F0C1FE00201D
:10105000A0707CBD701C03083C000020681C0308C5
:10106000A400002030B5B3F5804F05D06FF070417B
:1010700040F82210002030BD8C690B688D68234336
:101080004C688989240144EA0524234343EA014149
:1010900050F82230014C23401943E9E70000F0CF1B
:1010A00010B50A6850F8223023F0010340F82230CE
:1010B0008C68082C23D000234A682243CC681C4348
:1010C0000B6922431A434B690E4C1A43CB691A43EE
:1010D0000B6A1A434B6A1A438B6A1A43CB6A1A4348
:1010E0000B6B1A438B6913434A6B09681A4350F818
:1010F0002130A343134340F82130002010BD40238A
:10110000DAE700007FFF0F0030B5D1E9003443EA91
:1011100004138C688D89240244EA054423430C8A15
:10112000074D00EB820005EB045423430C7D6D0159
:1011300005EB0464896923430B434360002030BD01
:101140000000F0FF70B5194D0446E87884422BD0BA
:1011500005F1240151F8242051F8201014A003F0C7
:101160004FFFEC70052C1FD2DFE804F0030A1E06C7
:1011700014000020FFF728FFBDE8704002F02CBDEE
:101180000020FFF721FFBDE8704040220021084603
:1011900002F028BD00221146FF2002F023FDBDE829
:1011A00070400320FFF710BF70BD0000C400002096
:1011B0005B46534D5D202573202D3E2025730D0A7F
:1011C000000000000148C07870470000C400002003
:1011D00010B5084C0020E070A060E0602061606104
:1011E00000F0E4FBA061FFF7E5FEBDE81040002041
:1011F000FFF7EABEC40000200149487070470000B4
:10120000C40000200149087070470000C40000209D
:1012100005280ED2DFE800F0030507090B0006A041
:10122000704707A0704708A070470AA070470BA03E
:1012300070470CA07047000049444C450000000076
:101240004143544956450000494E54455241435488
:1012500000000000534C454550000000414C4552F1
:10126000540000003F3F3F002DE9F0478EB000F0F2
:101270009DFB8E4D04464FF4FA6AA868201A0A288E
:101280003AD30BA8AC6003F05BFDA8B3AC61E8787F
:10129000032803D020B1012806D011E0002000E08F
:1012A0000120FFF74FFF0BE00220FFF74BFF01206B
:1012B000FFF78AFE534600228021FF2002F066FCE1
:1012C0009DF82C008DF800009DF82D008DF8010090
:1012D00002226946102003F043FF74489DF82D1048
:1012E000383050F8212071499DF82C001C3151F8FC
:1012F00020106FA003F084FE6878A946002873D000
:10130000D9F80C10611A32296ED3C9F80C4002F0DA
:101310002DFA5FEA000899F80210484619D0002912
:1013200060D14460846199F8030003280FD0022043
:10133000FFF708FF0220FFF747FE5346FF228021F8
:10134000002002F023FC5EA003F05AFE4AE00020D9
:10135000EEE7002946D0D9F804004FF47A71201A3C
:10136000B0FBF1F5032D08D200265CA73046FFF74D
:101370002BFEFF221146002020E00A2D08D2012674
:1013800057A73046FFF720FE00225346C82109E048
:101390001E2D0BD2022654A70720FFF715FEC822E8
:1013A00053466421FF2002F0F1FB09E0032650A719
:1013B0000520FFF709FEFF220021104602F012FC73
:1013C0008DF83050280A8DF831008DF832600322F4
:1013D0000CA9112003F0C4FE33463A46294646A024
:1013E00003F00EFE89F8028099F800004D4678B3AC
:1013F0002869201A14282BD304A82C6101F002FFBD
:1014000030B304A801F088FE012802D002280DD0D4
:101410001EE00420FFF796FE41A001220068009024
:101420006946122003F09CFE3EA00FE0AC61E87814
:10143000032802D10020FFF785FE3EA001220068AC
:1014400000906946122003F08BFE3BA003F0D8FD0C
:101450006869201A322802D36C61FFF7C9FD02F0D7
:10146000D3FB03F04DFDA869E978201A032910D2B7
:10147000DFE801F01202080047F23051884208D339
:10148000002004E042F21071884202D30120FFF7ED
:1014900059FE0EB0BDE8F0872B498842F9D30320EE
:1014A000FFF750FE0420FFF78FFDF2E7C400002095
:1014B0005B544F5543485D2025732025730D0A006A
:1014C0005B4E46435D2046656564696E67207374B4
:1014D00061727465642E2E2E0D0A00007461700016
:1014E000736E61636B0000006D65616C000000004D
:1014F00066656173740000005B4E46435D2046657F
:101500006564696E673A20256C7573202D202573FC
:1015100020286C6576656C3D2564290D0A00000065
:10152000010000005B504F53455D2046414C4C0D7F
:101530000A000000020000005B504F53455D20533D
:1015400048414B450D0A0000E093040010B590F8A7
:1015500021100022022905D00421816380F8202077
:10156000012010BD01680B6823F00E030B600168B9
:101570000B6823F001030B6090F84030C46B01212D
:1015800001FA03F3636080F8211080F820201046F0
:1015900010BD00002DE9F05F90F821100024022911
:1015A00003D004218163012485E001680A6822F0E8
:1015B0000E020A6001680A6822F001020A603F4ECA
:1015C0003E4FB215DFF8F4C0DFF8F090DFF8ECA082
:1015D000DFF8E8B0DFF8E4E00168783F13011502B6
:1015E000ACF1640CA9F15009AAF13C0AABF1280B4B
:1015F000AEF1140E4FF48018B14227D9B9420ED083
:10160000614512D049451DD0514518D0594518D0D3
:10161000714501D1424615E0294EB14201D1012266
:1016200010E0274E1436B14201D110220AE0244EB8
:101630002836B14206D0224A3C32914201D11A46A4
:1016400000E02A461E49091F0A602BE0B94213D068
:10165000614517D0494522D051451DD059451DD06F
:10166000714501D142461AE0B14202D14FF0807279
:1016700015E0134EB14201D1012210E0104E143694
:10168000B14201D110220AE00D4E2836B14206D0F7
:101690000B4A3C32914201D11A4600E02A460749E2
:1016A00080394A60012180F82110002180F8201043
:1016B000416B01B188472046BDE8F09F80000240A1
:1016C0000804024070B5044600F070F90546601C3D
:1016D00002D004480078044400F068F9401BA0429E
:1016E000FAD370BD08000020F0B585B0002000904E
:1016F0000190029003901B48016800292FD11A4CD9
:1017000001210160606940F48070606160690225B8
:1017100000F4807004904FF68470CDE90005032634
:1017200069460396114800F03BF84CF2B370CDE9DE
:1017300000050F4F69460396384600F031F8A0695E
:1017400040F02000A061A069694600F020000490EC
:10175000E014CDE900050396384600F021F805B005
:10176000F0BD000000000020001002400018014001
:1017700000140140102803D0202803D103F0D0BA70
:1017800003F0C8BA70470000044910B50A68024265
:1017900002D00860FFF7EEFF10BD00001404014006
:1017A0002DE9F84FDFF8C8910024A9F1040B234676
:1017B0000F2709F1040AABF1040ED1E00125A54081
:1017C00006EA0502AA4276D1DFF8A8C14E68A6EB68
:1017D0000C0866452BD00DDC032E34D005DC36B367
:1017E000012E19D0022E2FD11BE0112E16D0122E51
:1017F0002AD119E0B8F5881F19D006DCB8F5803F6A
:1018000015D0B8F5801F1FD111E0B8F5001F0ED01C
:10181000B8F5041F18D10AE0CB6815E0CB681B1D92
:1018200012E0CB6808330FE0CB680C330CE08B6818
:101830002BB1012B4FF0080303D0456104E00423D2
:1018400002E0056100E00023FF2A01D8064601E01E
:1018500000F104064FEA840501D9A5F12005D6F868
:10186000008007FA05FC28EA0C0803FA05F548EAA7
:101870000508C6F800804D68ED0070D53E4DAE6994
:1018800046F00106AE61AD6924F0030605F00105DE
:1018900000953A4D06EB050CDCF80850A607360F0C
:1018A00007FA06F825EA0805DFF8D480404503D199
:1018B0004FF0000825E052E0DFF8C880404502D133
:1018C0004FF001081DE0DFF8C080404502D14FF025
:1018D000020816E0DFF8B480404502D14FF003085B
:1018E0000FE0DFF8AC80404502D14FF0040808E07B
:1018F000DFF8A080404502D14FF0050801E04FF02D
:10190000060808FA06F848EA0508CCF808804D6889
:10191000D9F80060ED024D4601D5164300E096432C
:101920002E604D68DAF80060AD02554601D51643C9
:1019300000E096432E604D68DBF80060AD035D4625
:1019400001D5164300E096432E604D68DEF8006036
:10195000ED03754601D5164300E096432E60641CE6
:101960000A681646E2407FF429AFBDE8F88F000010
:101970000804014000001110001002400000014066
:1019800000080140000C014000100140001401401B
:1019900000180140001C01408068084000D0012070
:1019A00070470AB1016170470904FBE7014880688C
:1019B000704700000800002070B5040025D094F89E
:1019C0003D00002520B984F83C50204600F0B8F8CE
:1019D000242084F83D002068016821F001010160A5
:1019E0002068016841F4004101602068016821F429
:1019F0000041016000F000FA4D4A6168914201D84F
:101A00004C4900E04C49884201D2012070BD4B494D
:101A10002368B0FBF1F15E6826F03F060E435E607E
:101A20006368934206D94FF4967359434FF47A731F
:101A3000B1FBF3F12368491C1E6A26F03F063143CF
:101A400019626168914210D84900401EB0FBF1F262
:101A5000521CC2F30B02042A01D2042022E0B0FB84
:101A6000F1F0401CC0F30B001CE0A268F2B301EBE4
:101A7000C10303EB0116431EB3FBF6F35B1C43F4F7
:101A800080431B0549D092B301EBC10202EB011167
:101A9000401EB0FBF1F0401CC0F30B0040F480404E
:101AA00040F400402168CA694CF6FF739A43104322
:101AB000C861D4E9071001432068026822F0C0021F
:101AC00011430160D4E9030101432068826848F2B0
:101AD000FF339A4311438160D4E90501084321682B
:101AE000CA6822F0FF021043C86001E00EE016E071
:101AF0002068016841F0010101602564202084F81C
:101B00003D00256384F83E50002070BD01EB410686
:101B1000431EB3FBF6F35B1CB3E70120C2E701EB06
:101B20004101401EB0FBF1F0401CC0F30B00B7E7D1
:101B3000A086010080841E0000093D0040420F0085
:101B400010B586B0002100910191029103910068C7
:101B50000F4988421AD10F4CA06940F00800A061DB
:101B6000A069694600F008000490C020009012208F
:101B70000190032003900848FFF712FEE06940F44B
:101B80000010E061E06900F40010049006B010BDA0
:101B90000054004000100240000C014002488168DF
:101BA000027811448160704708000020074810B592
:101BB000016841F010010160032000F075F8002079
:101BC00000F006F800F024F8002010BD00200240CC
:101BD00070B50D4D04464FF47A712878B1FBF0F0E2
:101BE0000A490968B1FBF0F000F04DFD48B9102C2E
:101BF00007D200222146501E00F036F800206C600B
:101C000070BD012070BD00000800002014000020FD
:101C10000C4808B5816941F001018161816901F0D9
:101C200001010091C16941F08051C161C06900F0BA
:101C3000805000900448416821F0E06141F000715B
:101C4000416008BD0010024000000140002809DB8F
:101C500000F01F02012191404009800000F1E020C6
:101C6000C0F8001170470000F0B40E4B1B680C4622
:101C7000C3F30223C3F10705042D00D90425191D60
:101C8000072901D2002300E0DB1E012606FA05F138
:101C9000491E214099409E40761E16403143F0BCBB
:101CA00003F05EBB0CED00E0064900F00702086897
:101CB0004FF6FF03184040EA0220034A1043086031
:101CC000704700000CED00E00000FA052DE9F04738
:101CD0000F46050061D0434E306800F00700B8425F
:101CE00009D2306820F0070038433060306800F0D7
:101CF0000700B84251D128683B4C810712D54007F4
:101D000003D5606840F4E06060602878000703D580
:101D1000606840F4605060606068A96820F0F0007E
:101D2000084360602878C00728D06868012810D070
:101D30002168022810D0890700292EDA616821F075
:101D4000030101436160FFF731FE804641F28839AB
:101D50000DE021688903EFE78901EDE7FFF726FE33
:101D6000A0EB0801494502D90320BDE8F08760686F
:101D7000696800F00C00B0EB810FEFD1306800F023
:101D80000700B8420BD9306820F0070038433060B4
:101D9000306800F00700B84201D00120E5E728785C
:101DA000400705D56068E96820F4E060084360609A
:101DB0002878000706D56068296920F4605040EA59
:101DC000C100606000F038F86168084AC1F303118F
:101DD000515CC8400649086006480068FFF7F8FEF5
:101DE0000020C2E7002002400010024036600008D8
:101DF000140000200C0000200448054900684968D0
:101E0000044AC1F30221515CC8407047140000200D
:101E1000001002404660000804480549006849680F
:101E2000044AC1F3C221515CC8407047140000202D
:101E300000100240466000080E4A51680E4801F04A
:101E40000C03042B11D0082B0FD10C48C1F3834392
:101E5000C903C05C0AD55168084AC1F34041921ECB
:101E6000515C054A5043B0FBF1F0704704494843C8
:101E7000704700000010024000127A00266000083F
:101E800000093D002DE9F84F040070D02078C04DC6
:101E9000C00749D06868C0F38100012807D068688E
:101EA000C0F38100022809D16868C00306D52868FC
:101EB000800339D560680028E7D035E06068B0F568
:101EC000803F0BD010B1B0F5A02F11D0286820F4BE
:101ED00080302860286820F4802002E0286840F4E0
:101EE00080302860606890B1FFF760FD06460AE028
:101EF000286840F480202860F0E700BFFFF756FD17
:101F0000801B642873D828688003F7D50CE0FFF79E
:101F10004DFD064605E000BFFFF748FD801B642825
:101F2000F0D828688003F7D420789A4E80074FF0C5
:101F300001094FF0000839D5686810F00C0F07D080
:101F40006868C0F38100022809D16868C00306D41C
:101F50002868800714D52069012808D110E020697D
:101F6000B0B1C6F80090FFF721FD074605E00AE191
:101F7000FFF71CFDC01B0228C4D828688007F7D5CE
:101F80002868616920F0F80040EAC10028600DE08F
:101F9000C6F80080FFF70AFD074604E0FFF706FDDC
:101FA000C01B022823D828688007F7D420780007B0
:101FB0002CD57948A169D9B1C0F80090FFF7F6FC9B
:101FC000074604E0FFF7F2FCC01B02280FD8686A3E
:101FD0008007F7D571484FF4FA510068B0FBF1F073
:101FE000009000BF0098411E0091FAD20EE080E000
:101FF000C0F80080FFF7DAFC074604E0FFF7D6FCE4
:10200000C01B022875D8686A8007F7D4207840077B
:1020100060D5E8690027C00008D4E86940F0805026
:10202000E861E869012700F0805000905C48016891
:10203000C90513D40168834641F480710160FFF73C
:10204000B5FC824606E000BFFFF7B0FCA0EB0A003B
:1020500064284ED8DBF80000C005F5D5E0680128FB
:102060000AD008B1052813D0286A20F001002862A0
:10207000286A20F0040002E0286A40F0010028628B
:10208000E06841F2883B98B1FFF790FC82460BE094
:10209000286A40F004002862EEE700BFFFF786FCE4
:1020A000A0EB0A0159455AD8286A8007F6D50CE0FA
:1020B000FFF77CFC824605E0FFF778FCA0EB0A0105
:1020C00059454CD8286A8007F6D41FB1E86920F03A
:1020D0008050E861E06988B36968C1F38101022931
:1020E00044D00228C6F8608004D0FFF75FFC0446A5
:1020F00038E034E0FFF75AFC074604E0FFF756FCEF
:10210000C01B02282BD828688001F7D4206AB0F5BC
:10211000803F05D16868A16820F4003008436860FA
:10212000D4E908010843696821F474110843686020
:10213000C6F86090FFF73AFC044606E025E000BFD1
:10214000FFF734FC001B022809D828688001F7D566
:102150001BE000BFFFF72AFC001B022802D9032066
:10216000BDE8F88F28688001F4D40EE00128F7D08C
:102170006868226A00F48031914204D1616A00F4F7
:102180007010884201D00120EAE70020E8E7000053
:10219000001002400000424280044242140000202D
:1021A0000070004070B5040009D0606A002540B19D
:1021B00025616561A56294F8510040B10CE00120F1
:1021C00070BD6068B0F5827FF4D0E561F2E784F815
:1021D0005050204600F040F8022084F8510020685A
:1021E000016821F040010160A088218900F482701B
:1021F00001F404410843A18901F400610843217CF2
:1022000001F002010843217D01F001010843218B07
:1022100001F400710843217F01F03801084394F86C
:10222000201001F080010843218D01F40051084382
:1022300021680860A069042101EA10402168486013
:102240002068C16921F40061C1616565012084F8DD
:102250005100002070BD000030B585B0002400940E
:1022600001940294039400681449884223D11448CD
:10227000816941F480518161816901F48051049147
:10228000816941F00401816180690E4D00F0040014
:102290000490A02000900220019003200390694642
:1022A0002846FFF77DFA4020CDE90004694628461C
:1022B0000294FFF775FA05B030BD00000030014010
:1022C00000100240000801402DE9F84F98461646DC
:1022D0008A460446FFF76AFB814694F851000128BC
:1022E0001ED1BAF1000F73D0002E71D094F85000B7
:1022F000012815D0012784F85070032084F851007C
:1023000000256565C4F830A0A686E686A563A58786
:10231000E58765642564A068B0F5004F03D00CE044
:102320000220BDE8F88F2068016821F040010160BB
:102330002068016841F48041016020680168490615
:1023400003D4016841F040010160E068B0F5006F1E
:10235000606803D048B3012E27D047E008B1012EB2
:102360001FD1206B21680088C86006E02068816862
:10237000890709D5216B0988C160206B801C206307
:10238000E08E401EE0860CE0FFF710FBA0EB090199
:10239000414503D3B8F1FF3F03D035E0B8F1000F5A
:1023A00032D0E08E0028E1D123E0206B2168007854
:1023B000087306E02068816889070AD5216B0978CF
:1023C0000173206B401C2063E08E401EE0860DE010
:1023D0002BE0FFF7EBFAA0EB0901414503D3B8F17D
:1023E000FF3F03D010E0B8F1000F0DD0E08E0028C1
:1023F000E0D14A464146204601F052FC08B1202077
:102400006065A06830B109E084F8517084F85050DC
:10241000032086E72068C1688068009084F85170C6
:1024200004F8505F60680028F3D0012079E72DE9B7
:10243000FF4F81B01D46934604464FF001090E9EA2
:10244000FFF7B4FA074694F851006168012806D0F6
:10245000B1F5827F3CD1A168C9BB042838D102986C
:10246000002871D0BBF1000FFBD0002DF9D094F8FB
:10247000500001282CD04FF0010A84F850A094F8A5
:102480005100042802D0052084F851004FF00008C4
:10249000C4F85480C4F838B0E587A5870299216351
:1024A000E586A586C4F84080C4F8448020680168A9
:1024B000490603D4016841F040010160E068B0F5CD
:1024C000006F606808D0F0B3012D49D081E0FFE7CC
:1024D000022005B0BDE8F08F08B1012D39D1206B85
:1024E00021680088C860206B801C2063E08E401E3D
:1024F000E0862EE02068816889070FD5E18E69B1FA
:10250000B9F1010F0AD1216B0988C160206B801CD1
:102510002063E08E401EE0864FF00009206881684D
:10252000C9070CD0E18F51B1C068A16B0880A06BC6
:10253000801CA063E08F401EE0874FF00109FFF789
:1025400035FAC01B01E00BE067E0B04201D3701C1C
:1025500050D1E08E0028CDD1E08F0028CAD13EE0D6
:10256000206B216800780873206B401C2063E08E8C
:10257000401EE0862DE02068816889070FD5E18E36
:1025800069B1B9F1010F0AD1216B09780173206B90
:10259000401C2063E08E401EE0864FF0000920685A
:1025A0008168C9070CD0E18F51B1C068A16B087078
:1025B000A06B401CA063E08F401EE0874FF0010934
:1025C000FFF7F4F9C01BB04202D3701C01D011E038
:1025D00086B1E08E0028CED1E08F0028CBD13A46DC
:1025E0003146204601F05CFB50B12020606584F844
:1025F000508012E084F851A084F85080032068E7EE
:10260000A06818B92068C1688068009084F851A05B
:1026100084F85080606D0028F1D0012059E770B532
:1026200015460E46040007D0A069B0F5807F03D0A0
:1026300094F8410010B107E0012070BD002084F83B
:102640004000204600F01DF804F108012068FEF764
:1026500027FD3146A2682068FEF756FDD4E9010245
:102660002946236BFEF7FEFCA168206850F8212064
:1026700042F0010240F82120012084F841000020AE
:1026800070BDFFF731B810B5401EB0F1807F01D3A7
:10269000012010BD4FF0E02460610F21601702F0AF
:1026A0005FFE0020A06107202061002010BD000017
:1026B00070B590F83C20012A2CD0012480F83C40D1
:1026C000022280F83D2003685A689D6822F0700657
:1026D0000A6832435A60104B02689A420ED00F4B80
:1026E0009A420BD0B2F1804F08D00D4B9A4205D0E0
:1026F0000C4B9A4202D00C4B9A4204D1496825F007
:1027000080031943916080F83D40002180F83C101F
:10271000084670BD022070BD002C0140003401400D
:102720000004004000080040000C004000B585B0E7
:102730000021009101910291039100680F498842A4
:102740001AD10F48816941F00801816180696946A9
:1027500000F00800049023200090022001900390D4
:102760000848FFF71DF80848416821F4406141F02E
:10277000E06141F40061416005B000BD000400402B
:1027800000100240000C01400000014070B50446FA
:1027900090F83C0000260D4601280FD0012084F857
:1027A0003C006AB1042A1DD0082A2FD00C2A3FD041
:1027B0000126002084F83C00304670BD022070BD28
:1027C000206801F005FC2068816941F00801816101
:1027D0002068816921F004018161206881692A698A
:1027E000114311E0206801F023FC2068816941F465
:1027F000006181612068816921F4806181612068C4
:1028000081692A6941EA02218161D2E7206801F0E9
:1028100045FC2068C16941F00801C1612068C169B7
:1028200021F00401C1612068C1692A69114311E0E6
:10283000206801F067FC2068C16941F40061C16152
:102840002068C16921F48061C1612068C1692A6979
:1028500041EA0221C161ACE710B5040003D094F84D
:102860003D0010B107E0012010BD002084F83C00BD
:10287000204600F01FF8022084F83D00211D20684A
:1028800001F04AFB012084F8460084F83E0084F8F9
:102890003F0084F8400084F8410084F8420084F846
:1028A000430084F8440084F8450084F83D0000208B
:1028B00010BD000008B500680649884208D10648E6
:1028C000C16941F00201C161C06900F002000090DD
:1028D00008BD0000000400400010024010B504468E
:1028E000022249B104290ED0082913D094F84100DE
:1028F000012816D0012010BD94F83E000128F9D11E
:1029000084F83E200FE094F83F000128F2D184F8CB
:102910003F2008E094F840000128EBD184F84020E3
:1029200001E084F841200122206801F043FB1349B3
:102930002068134A884201D0904203D1436C43F48B
:1029400000434364206888420DD090420BD0B0F120
:10295000804F08D00B49884205D00B49884202D0ED
:102960000A49884204D1816801F00701062903D091
:10297000016841F001010160002010BD002C014000
:10298000003401400004004000080040000C0040FA
:1029900070477047F8B5016804460868CA684B6913
:1029A00010F00F0F4FF0000559D003F0010602F4AC
:1029B0009077374365D0C10705D0D10503D5616C49
:1029C00041F001016164410705D5D90703D0616C6D
:1029D00041F002016164810705D5D90703D0616C1C
:1029E00041F004016164010707D502F02001314381
:1029F00003D0616C41F008016164616C00293AD038
:102A0000800604D5900602D5204602F03BFB2068E4
:102A10004069616CC0F38010090700D460B32046A0
:102A200002F022FA20684069400621D5206814305F
:102A300050E8001F21F0400140E80012002AF5D1C3
:102A4000E06BA8B16D494163E06BFEF7A3FD002880
:102A500011D0E06B416B01B0BDE8F0400847830640
:102A60000FD593060DD52046BDE8F84002F00ABB0D
:102A70002046FFF78EFFF8BD2046FFF78AFF65640A
:102A8000F8BD266B2023012E7CD1C6067AD5D6064A
:102A900078D508684868009048694FF002064006FB
:102AA00040D5E16B086840680004000CE8D0A28DB6
:102AB0008242E5D9E085886920282DD020680C3035
:102AC00050E8001F21F4807140E80012002AF5D17F
:102AD0002068143050E8001F21F0010140E8001286
:102AE000002AF5D12068143050E8001F21F0400181
:102AF00040E80012002AF5D184F8423025632068AE
:102B00000C3050E8001F21F0100140E80012002AAC
:102B1000F5D1E06BFEF71AFD6663A08DE18D401ADA
:102B200081B22AE0A08DE18D401A81B2E08D0028AB
:102B3000A6D00029A4D022680C3252E8000F20F45D
:102B4000907042E80007002FF5D12068143050E85B
:102B5000002F22F0010240E80027002FF5D184F871
:102B60004230256320680C3050E8002F22F010021C
:102B700040E80023002BF5D166632046FFF708FFED
:102B8000F8BDFFE705062BD5150629D594F84100B9
:102B90002128F5D1A068B0F5805F01D12069B0B1DE
:102BA000206A411C2162216800784860E08C401E48
:102BB0000004000CE084E3D12068C16821F08001AA
:102BC000C1602068C16841F04001C160D8E7206A57
:102BD0000088C0F308004860206A801C2062E5E796
:102BE0004006CDD55006CBD5CA68204622F040021B
:102BF000CA6084F8413000F0E9F8C1E7594E000896
:102C000070B5040004D094F84100002510B106E02E
:102C1000012070BD84F84050204600F023F82420A5
:102C200084F841002068C16821F40051C160204649
:102C300002F0C8FA2068016921F49041016120681E
:102C4000416921F02A0141612068C16841F40051C5
:102C5000C1606564202084F8410084F84200656307
:102C6000002070BD30B585B000240094019402941A
:102C700003940068184988422CD11848816941F4AE
:102C800080418161816901F480410491816941F051
:102C9000040181618069124D00F0040004904FF43A
:102CA000007000900220019003200390694628469E
:102CB000FEF776FD2815CDE9000469462846029402
:102CC000FEF76EFD002203212520FEF7CDFF252013
:102CD000FEF7BCFF05B030BD0038014000100240D7
:102CE0000008014090F84230202B01D002207047AC
:102CF00021B11AB10023036302F0C0BA012070476A
:102D0000084910B588420BD10748407902F090F984
:102D100005490122BDE81040491D0248FFF7E2BF06
:102D200010BD00004C020020240000202DE9F843D3
:102D3000044690F84100984616460D46202802D0D9
:102D40000220BDE8F88385B17EB1002060642120B7
:102D500084F84100FEF72AFEA6848146E684A06836
:102D60002027B0F5805F02D003E00120E9E7206969
:102D700010B12E4600250EE000260CE080212046F2
:102D800002F097FAA8B9C6B116F8010B216848609D
:102D9000E08C401EE084E08C4B464FF00002CDF802
:102DA00000800028EAD14FF04001204602F081FA6D
:102DB00040B184F841700320C3E735F8020BC0F33B
:102DC0000800E3E784F841700020BAE77047FEE7A7
:102DD0002DE9F84F99460B9F92467A437B4392B276
:102DE0009BB200F077F92C20C1060880BAF10104EB
:102DF00021D400BF4FF00008DFF840B017E00025F5
:102E000011E000BF05FB0A410A98002630F81100C6
:102E1000009005E0009800F0EFFBABF80000761C96
:102E2000BE42F7DB6D1C4D45ECDB08F10108B845EF
:102E3000E5DB641EDED5BDE8F88F0000000002600F
:102E4000F8B5002000F04AF8164E00244FF6FF7542
:102E500036F81400009004EB840005EAC00050230B
:102E60002822002100F020F8641C082CF0DB00244C
:102E700050270126A11006FA04F204F0030092B2D2
:102E800001EB810107EBC10100EB8000009289B2E8
:102E900005EA00102823502200F006F8641C102CCC
:102EA000E8DBF8BD4E6000082DE9F0411C461546F0
:102EB000069E00F00FF92C20C1060880654300240F
:102EC000054F04E0304600F097FB3880641CAC42AC
:102ED000F8D3BDE8F08100000000026008B50021D1
:102EE0000090F0234FF4A0720846FFF7DDFF08BD05
:102EF0002DE9F043734C85B0A06940F02000A0613B
:102F0000A069002600F020004FF002080296CDE9EB
:102F10000380A5140127DFF8B091CDE90057694679
:102F20004846FEF73DFC002229464846FEF739FD9B
:102F3000A06940F04000A061A069644C00F040002E
:102F400004906946CDF800802046FEF729FC002257
:102F500002212046FEF725FD0A20FEF7B3FB0122E1
:102F600002212046FEF71DFD7820FEF7ABFBA504ED
:102F70002F800520FEF7A6FBCF202880544C26800A
:102F80008120208030202080ED2028806420208037
:102F9000032020801220208081202080E8202880AB
:102FA000852020801020208078202080CB20288041
:102FB000392020802C20208026803420208006206C
:102FC0002080F720288020202080EA20288026806A
:102FD0002680B120288026801B202080B6202880D3
:102FE0000A202080A2202080C02028803520208038
:102FF000C120288011202080C520288045202080E5
:103000002080C7202880A2202080F22028802680CF
:10301000262028802780E02028800F20208026205E
:103020002080242020800B2020800E20208009205A
:10303000208054202080A8202080462020800C2042
:10304000208017202080092020800F20208007204A
:1030500020802680E12028802680192020801B20C7
:1030600020800420208010202080072020802A201B
:1030700020804720208039202080032020800620C7
:103080002080208030202080382020800F20208049
:1030900036202880C82020803A2028805520208093
:1030A000112028807820FEF70DFB2920288036206B
:1030B0002880202020800020FFF710FF05B0BDE809
:1030C000F08300000010024000140140001801408D
:1030D0000000026070B50244521E94B2CA18521E1B
:1030E00093B24FF0C0452A222A800A4A060A168067
:1030F000C0B21080200A1080E0B210802B202880FF
:10310000080A1080C8B21080180A1080D8B2108047
:1031100070BD0000000002602DE9F04104468068A7
:103120000146FDF7A5F9064660680146FDF7A0F9DE
:10313000054620680146FDF79BF92946FDF740F951
:103140003146FDF73DF902F047FF0546606901464B
:10315000FDF78EF9074620690146FDF789F9064615
:10316000E0680146FDF784F93146FDF729F9394653
:10317000FDF726F902F030FF0749084A2944914239
:1031800002D30120BDE8F0810549884201DD02201B
:10319000F8E70020F6E70000333333C1343353013E
:1031A0000000484338B5164C0020206000F0FCFDBC
:1031B00001236A467521682000F020FE002804D013
:1031C0009DF80000682801D0002038BD00226B2146
:1031D000682000F04DFE3220FEF774FA0422192117
:1031E000682000F045FE00221C21682000F040FE0F
:1031F00000221B21682000F03BFE0120206038BD2A
:10320000380000202DE9FF5F04463448006800289C
:1032100062D0002C60D00E236A463B21682000F06B
:10322000EDFD002855D0BDF80210BDF8000049BAE8
:103230000FB2BDF8041040BA49BA0FFA81F9BDF8CF
:10324000061000B249BA0FFA81FABDF8081049BA5F
:103250000EB2BDF80A1049BA0FFA81F8BDF80C1089
:1032600049BA0DB2FDF780F96FF00D0B5946FDF725
:103270006FF920603846FDF777F95946FDF768F990
:1032800060604846FDF770F95946FDF761F9A060A6
:103290003046FDF769F9124E3146FDF71BF9E06043
:1032A0004046FDF761F93146FDF714F920612846E3
:1032B000FDF75AF93146FDF70DF960615046FDF70B
:1032C00053F90849FDF706F90749FDF779F8A061B8
:1032D000012004B0BDE8F09F0020FAE7380000208C
:1032E000000003430000AA43B81E124200B587B095
:1032F0001C216846FCF761FF17484FF02041082267
:1033000001601649416000218160C0E9031210226A
:10331000C0E90521C16112020162C0E90912C1625E
:103320000163416381630120CDE900010420CDE9FF
:10333000020180060491CDE9051000226946064885
:10334000FFF76DF908B1FDF733FE0548C16941F497
:103350008061C16107B000BD10010020040100A020
:1033600000000140F0B585B0002546480095019564
:1033700002950395816941F040018161816901F005
:1033800040010491816941F010018161816901F07E
:1033900010010491816941F004018161816901F0AA
:1033A00004010491816941F008018161816901F0A2
:1033B00008010491816941F0200181618069324EE8
:1033C00000F020000490002218213046FEF7E9FAB0
:1033D0007B200324CDE9000469462C48FEF7E0F980
:1033E0004FF6CF70CDE90004294F69463846FEF705
:1033F000D7F949F60710CDE9000469463046FEF7D3
:10340000CFF91820009001200394CDE90105694609
:103410003046FEF7C5F9302000901E48019002208A
:10342000029069463846FEF7BBF94FF21C30CDE9F1
:103430000004194D69462846FEF7B2F9A002009033
:1034400012200190694603942846FEF7A9F943F635
:103450004C00CDE9000469461048FEF7A1F90022AE
:1034600005210A20FEF700FC0A20FEF7EFFB0022F0
:1034700005211720FEF7F8FB1720FEF7E7FB05B044
:10348000F0BD00000010024000080140001801409B
:103490000010014000001110000C01400014014018
:1034A0000D4810B50B4901600C49416000214FF4F3
:1034B00080428160C0E9031241618161C1610162A2
:1034C000FEF77AFA002803D0BDE81040FDF770BD82
:1034D00010BD00000054004058010020A0860100EB
:1034E000104810B50E4901604FF48271416000210F
:1034F0008160C1604FF400720161C0E905121022C1
:10350000C0E90721416281620A21C162FEF74AFED9
:10351000002803D0BDE81040FDF74ABD10BD0000F3
:1035200000300140AC01002010B58AB0002407949F
:103530001C2168460894FCF740FE1F481D490160A5
:1035400040F2CF71C0E90114FF21C0E90314846186
:10355000FFF782F908B1FDF72BFD079407A916487C
:103560000894FFF7A5F808B1FDF722FD6020CDE92A
:103570000004022002900422694604940E48FFF7DA
:1035800005F908B1FDF714FD082269460A48FFF75E
:10359000FDF808B1FDF70CFD0C2269460648FFF75F
:1035A000F5F808B1FDF704FD0348FFF7BFF80AB0CE
:1035B00010BD000000040040040200200C4810B5BB
:1035C0000A4901604FF4E1314160002181600C2221
:1035D000C160C0E904128161C161FFF711FB0028DD
:1035E00003D0BDE81040FDF7E3BC10BD003801403A
:1035F0004C020020FEE7FEE7C20AC0F3451100F0CE
:103600001F034808C00240EA821001F0010140EAAD
:10361000411018437047000038B50C46012808D007
:10362000022813D0032823D0042826D001461AA04C
:1036300008E0002A2FD0207808282CD2FDF7C4FCFF
:1036400021781CA0BDE8384001F0DABC032A22D35F
:1036500000F0D4FAA2786178207800F0C3FAA37859
:103660006278217801B01BA0BDE8304001F0C8BCF1
:10367000BDE838401FA001F0C3BC002A0BD023A036
:103680000222006800906946052001F069FD21785A
:103690001FA001F0B5FC38BD5B504320434D445D95
:1036A00020556E6B6E6F776E3A2030782530325829
:1036B0000D0A00005B504320434D445D2053657468
:1036C0002065787072657373696F6E3A2025640D9A
:1036D0000A0000005B504320434D445D2053657455
:1036E000205247423A202825642C25642C25642941
:1036F0000D0A00005B504320434D445D2051756529
:103700007279207374617475730D0A0004000000EF
:103710005B504320434D445D20486561727462658F
:103720006174207365713D25640D0A0070470000C7
:1037300028B1012805D0022805D004A0704705A0B3
:10374000704706A0704707A070470000554E4B4ECB
:103750004F574E00535441424C45000046414C4C9B
:10376000000000005348414B4500000010B588B0F0
:1037700000208DF8180026208DF81400112000F08C
:103780000FF93D2804D1142000F00AF9832801D054
:1037900000F09EF8072406AB01AA012105A80094B9
:1037A00000F024F910B1012008B010BD52208DF8AE
:1037B000140006AB01AA012105A8009400F016F937
:1037C000F2E7000070B58CB00446262000258DF885
:1037D00024008DF814500720009005AB01AA0121A8
:1037E00009A800F003F900280FD036A005AB006847
:1037F00000950A9001AA02210AA800F0F7F830B15A
:103800009DF81400282804D002200CB070BD0120BF
:10381000FBE70021084601AB1A5C22545140401CD2
:103820000428F9DB9DF80800884201D00320ECE76A
:1038300093208DF8180070208DF8190020788DF8ED
:103840001A0060788DF81B00A0788DF81C00E078D5
:103850008DF81D008DF81E100021012000F076F972
:1038600080210A2000F072F9002406AE0920315DA3
:1038700000F06CF9641C072CF8DB0321012000F038
:1038800065F94FF4FA74641E2404240C04D0052056
:1038900000F086F84007F6D5222000F081F88DF878
:1038A0001F00212000F07CF88DF8200005AB01AA54
:1038B000092106A8009500F099F808B10420A4E7B2
:1038C0000520A2E793200000372000F069B800002F
:1038D00070B5214D08242C600A2002F0EDF9281D56
:1038E00004600A2002F0E8F92C60322002F0E4F9CA
:1038F0000F21012000F02AF9322002F0DDF98D219C
:103900002A2000F023F93E212B2000F01FF900218E
:103910002C2000F01BF91E212D2000F017F940216A
:10392000152000F013F93D21112000F00FF9482176
:10393000262000F00BF98421172000F007F914204D
:1039400000F02EF8800705D1BDE870400321142057
:1039500000F01DBA70BD00001008014010B5FFF75F
:10396000B7FF0E48016821F038010160016841F09D
:1039700020010160372000F013F80446372000F0E2
:103980000FF8844205D1922C05D0912C03D0882CBD
:1039900001D0002010BD012010BD0000003001400A
:1039A0003EB57E2101EA400040F080008DF8040021
:1039B00000208DF805000B481024046002F073F914
:1039C00072B664200090022302AA01A90648FEF7FD
:1039D0002EFD62B60348001F046002F064F99DF8F2
:1039E00009003EBD14080140AC0100202DE9F0475C
:1039F0000D4680461E46914630270D20089900F05E
:103A0000A5F80021012000F0A1F87F21042000F09A
:103A10009DF88021052000F099F880210A2000F00F
:103A2000B6F97F21022000F091F88021032000F0F8
:103A30008DF8002407E000BF18F80410092000F0FA
:103A400085F8641CE4B2AC42F6D30C21012000F0EE
:103A50007DF880210D2000F09AF94FF4FA640420DB
:103A6000FFF79EFF641E24040546240C03D0E807DC
:103A700001D13D42F3D00D273846FFF791FF20F0EA
:103A80008001384600F062F8ACB30620FFF788FFEB
:103A900010F01B0F30D1A8062ED50A20FFF780FFAB
:103AA00004460C20FFF77CFF00F0070154B1102CF6
:103AB00000D910244FEAC40009B108380844307016
:103AC000002508E00124F5E70920FFF769FF09F860
:103AD00005006D1CEDB2A542F6D380210C2000F04C
:103AE00056F90021012000F031F83720FFF758FF88
:103AF0000120BDE8F087FFE780210C2000F047F9A6
:103B00000021012000F022F83720FFF749FF0020B4
:103B1000EFE7000038B50B481024046002F0C3F84A
:103B200002F0C1F8FF208DF800000A230122694647
:103B30000548FEF7C9FB0348001F046002F0B3F814
:103B400038BD000014080140AC01002038B57E22C9
:103B500002EA40008DF800000A488DF80110102498
:103B6000046002F0A0F872B6642302226946064897
:103B7000FEF7AAFB62B60348001F046002F093F848
:103B800038BD000014080140AC01002010B5054C00
:103B900020706170A270A380FDF708FFA060012073
:103BA000E07010BD1800002010B504210848FEF791
:103BB00095FE08210648FEF791FE0C210448FEF709
:103BC0008DFE00F009F803490020C87010BD000008
:103BD000040200201800002000221146104600F0C8
:103BE00001B80000044B10B51C68A0631868C163DD
:103BF0001868026410BD0000040200200149002082
:103C0000C8707047180000202DE9F041224CE07880
:103C100000283FD0FDF7CAFEA168461AA0880746D3
:103C2000FCF7ABFC0546B6FBF7F007FB1060FCF7B2
:103C3000A4FC2946FCF74EFCB0F17C5F04DB014696
:103C40004FF07E50FCF70EFC0121FCF781FC05468D
:103C50002078FCF792FC2946FCF70AFCFCF792FC62
:103C6000C7B26078FCF789FC2946FCF701FCFCF739
:103C700089FCC6B2A078FCF780FC2946FCF7F8FB6B
:103C8000FCF780FCC1B20548026897630268D663FE
:103C900000680164BDE8F0811800002004020020E3
:103CA000F8B515460E460B46009204460122022145
:103CB00000F010F840B933460022802120460095DC
:103CC00000F008F8002804D0606D40F02000606526
:103CD0000320F8BD2DE9F8431E4691468846044668
:103CE000089DFDF763FE401B351AFDF75FFE074692
:103CF00025480068C0F3CB30684338E0701C37D0EB
:103D0000FDF754FEC01BA84203D215B1009860B362
:103D10002CE02068416821F0E00141606068B0F566
:103D2000827F0BD1A068B0F5004F02D0B0F5806F54
:103D300004D12068016821F040010160A06AB0F55B
:103D4000005F09D12068016821F4005101602068FA
:103D5000016841F400510160012084F85100002005
:103D600084F850000320BDE8F8830025401E009031
:103D70002068816838EA010004D000214945BDD19E
:103D80000020F0E70121F9E714000020704770B52A
:103D90000C460546FFF704FE40EA04012846BDE84C
:103DA0007040FFF7D3BE0000124810B5816986B09D
:103DB00041F00401816180690F4C00F0040004901F
:103DC0004FF4C05000901120019001200290032078
:103DD000039069462046FDF7E3FC0122D10220460C
:103DE000FDF7DFFD012211032046FDF7DAFD06B0E5
:103DF00010BD000000100240000801402DE9F04114
:103E00001D4616460F46044601F0EAFF6006000E06
:103E100001F0B8FF02F02CF8A8B1384601F0B2FF6B
:103E200002F026F878B102F003F801F0D9FF012082
:103E300000EB4400C0B201F0A5FF02F019F810B188
:103E400000246F1E0EE001F0F3FF0020BDE8F081BA
:103E5000BC4201DA012000E0002001F03FFF3055B4
:103E6000641CE4B2AC42F3D301F0E2FF0120EDE7C1
:103E700070B515460E46044601F0B2FF6006000E0E
:103E800001F080FF01F0F4FF78B1304601F07AFFD5
:103E900001F0EEFF48B1284601F074FF01F0E8FFA1
:103EA00018B101F0C5FF012070BD01F0C1FF002075
:103EB00070BDFDF773BE30B58FB028216846FCF7A2
:103EC0007CF914210AA8FCF778F901210804CDE94E
:103ED00000100024029402250491CDE907504FF40C
:103EE000E01009906846FDF7CDFF08B172B6FEE715
:103EF0000F20CDE90A054FF48060CDE90C40022186
:103F00000AA80E94FDF7E2FE002801D072B6FEE783
:103F10000FB030BD70470000F0B50268204C214D55
:103F2000214E224F224B4FF0804CA04209D09842A4
:103F300007D0604505D0A84203D0B04201D0B842B6
:103F400004D122F0700E4A6842EA0E02A04209D063
:103F5000984207D0604505D0A84203D0B04201D0B6
:103F6000B84203D122F44075CA682A434D6922F051
:103F700080022A4302608A68C2620A688262A042A2
:103F800001D0984201D109690163012141610169B0
:103F9000C90703D0016921F001010161F0BD0000F2
:103FA000002C01400004004000080040000C0040CC
:103FB0000034014010B501F01F030121046A99404B
:103FC0008C430462016A9A401143016210BD0000F3
:103FD000F0B5036A026A22F0010202624268846953
:103FE000124E24F073050C682C4323F002058B68F5
:103FF0002B430D4DA84201D0B04205D123F0080754
:10400000CB683B4323F00403A84201D0B04205D162
:104010004D6922F4407215438A692A4342608461E3
:10402000496841630362F0BD002C01400034014047
:10403000F0B5026A036A23F01003036243688469DF
:104040000D6824F4E64444EA05248D6822F0200239
:1040500042EA05120F4D104EA84201D0B04206D1DF
:10406000CF6822F0800242EA071222F04002A84202
:1040700001D0B04207D14D6923F4406343EA850380
:104080008D6943EA85034360846149688163026204
:10409000F0BD0000002C014000340140F0B5026A80
:1040A000036A23F4807303624368C46922F40072D4
:1040B00024F073050C68124E2C438D6842EA0522E9
:1040C0000E4DA84201D0B04206D1CF6822F4006262
:1040D00042EA072222F48062A84201D0B04207D10E
:1040E0004D6923F4405343EA05138D6943EA0513F0
:1040F0004360C4614968C1630262F0BD002C0140A5
:104100000034014030B5046A026A22F4805202622F
:104110004268C3690D6823F4E64343EA05238D68CA
:1041200024F4005444EA0534084DA84202D0084D56
:10413000A84204D14D6922F4804242EA85124260CD
:10414000C36149680164046230BD0000002C014075
:1041500000340140F0B58FB005460422D4A1FCF72D
:104160005EF800286DD0D4A12846FCF74AF8002854
:104170007CD00422D1A12846FCF751F8002876D043
:104180000422D0A12846FCF74AF8002870D0CFA11D
:104190002846FCF736F800286BD0CEA12846FCF75D
:1041A00030F8002866D0CDA12846FCF72AF8002870
:1041B00079D0CCA12846FCF724F8002874D0CBA1F4
:1041C0002846FCF71EF800286FD0CAA12846FCF745
:1041D00018F800286AD0C8A12846FCF712F8002871
:1041E0007DD0C8A12846FCF70CF8002878D0C7A1DC
:1041F0002846FCF706F8002873D0C7A12846FCF72C
:1042000000F800286ED0C6A12846FBF7FAFF002868
:1042100069D0C5A12846FBF7F4FF00286FD0C5A1DF
:104220002846FBF7EEFF00286AD02846FBF7E2FF9E
:1042300000287FD02946C1A00FB0BDE8F04000F0B3
:10424000DFBE01A8009002AB03AABFA12846FBF77E
:10425000F5FF03286ED1FFF7D1FC0198C2B2029896
:10426000C1B20398C0B2FFF7BDFC04E006E04BE02A
:1042700066E083E092E0B8A0019B7AE007A8FEF731
:10428000C1FF00283AD00998FCF790F906460F467E
:104290000898FCF78BF904460D460798FCF786F959
:1042A0000B46024603E07EE082E086E08CE08DE88B
:1042B000F000AFA000F0A4FE0C98FCF777F90646DA
:1042C0000F460B98FCF772F904460D460A98FCF766
:1042D0006DF98DE8F00002460B46ADA004E0CFE09A
:1042E000E6E230E33FE34EE300F08AFE07A8FEF784
:1042F00013FFFFF71DFA0146AEA019E002E094E3B8
:10430000A8E317E0AEA0B8E02022B7496846FBF763
:104310003BFF00244FEA0D06281D56F82410FBF73A
:1043200057FF48B1E0B2FCF74FFE56F82410AFA09B
:1043300000F066FE0FB0F0BD641C082CECDBF9E762
:1043400001A8009002AB03AA80A1281DFBF776FF0D
:104350000328EFD103980299C010C002891040EAE7
:104360004110019940EAE10080B2FEF7B7FD019BE0
:10437000A2A0DDE9022100F043FEDBE7FEF760FDCD
:10438000A5A000F03DFEAEA000F03AFEB6A000F001
:1043900037FE0020FCF736FFC0A05CE30120FCF7ED
:1043A00031FFC3A057E30020FCF726FFC5A052E36E
:1043B0000120FCF721FFCDA04DE3FCF703FFFCF744
:1043C00027FF0146CEA037E7D0A000F019FE11204C
:1043D000FFF7E6FA05461420FFF7E2FA0446024624
:1043E0002946D1A000F00CFE3D2D01D1832C1ED01A
:1043F000D8A000BF00F004FEDDA000F001FEFFF732
:10440000B5F9002838D0DEA000F0FAFDDFA000F0FA
:10441000F7FD01A8FFF7D6F904280AD0B0B10128AA
:1044200024D0022824D0032824D0DCA025E0E0A05A
:10443000E0E79DF8070000909DF806309DF8052004
:104440009DF80410DCA000F0DBFD73E7E3A000F0B2
:10445000D7FD2620FFF7A4FA04461720FFF7A0FA9D
:1044600002462146E1A000F0CBFD63E7EBA004E0AB
:10447000F0A002E0F5A000E0F9A000F0C1FD59E7CE
:10448000FF4C002208212046FDF78BFA0A20FDF799
:1044900019F9012208212046FDF783FA3220FDF7A1
:1044A00011F90F210120FFF751FB3220EAE1000052
:1044B0006C656420000000006D707500656D6F20F4
:1044C000000000006C6364200000000063616C6900
:1044D000620000006D70756F6E0000006E66636FA5
:1044E000666600006E66636F6E0000007374617430
:1044F000650000006E6663006E66637265736574C6
:10450000000000006E666364626700006E666362AE
:104510006F6F7374000000006E66636C6F7700004D
:104520006E66637261770000756172747374617492
:104530007300000068656C70000000003F202725B4
:1045400073270D0A000000006C6564202564202597
:1045500064202564000000004F4B3A204C45443D48
:104560002825642C25642C2564290D0A00000000F0
:104570004143433A20583D252E326620593D252E91
:104580003266205A3D252E326620670D0A00000053
:104590004759524F3A20583D252E316620593D2526
:1045A0002E3166205A3D252E3166206465672F73B3
:1045B0000D0A0000504F53453A2025730D0A0000A4
:1045C0004D505536303530206E6F7420666F756EE5
:1045D00064202853572049324320504131312F5015
:1045E000413132290D0A0000046000084F4B3A2087
:1045F000656D6F3D25730D0A000000004C4344209B
:1046000066696C6C3A205247422825642C25642C3C
:104610002564290D0A0000005465737420706174CC
:104620007465726E3A203820636F6C6F7273202B42
:104630002031362D6269742077616C6B0D0A0000A1
:10464000546F703A20424C4B205245442047524E02
:1046500020424C552059454C2043594E204D41474E
:10466000205748540D0A0000426F743A20347834C1
:10467000206269742077616C6B2028626974302D28
:1046800031352C206C6566742D72696768742C2036
:10469000746F702D646F776E290D0A004D50552090
:1046A000706F6C6C696E67204F46460D0A00000003
:1046B0004D505520706F6C6C696E67204F4E0D0A1F
:1046C000000000004E464320706F6C6C696E6720DE
:1046D0004F464620286D616E75616C207465737459
:1046E000206D6F6465290D0A000000004E464320CE
:1046F000706F6C6C696E67204F4E0D0A00000000F1
:1047000053544154453A2025730D0A003D3D3D2048
:104710004E464320446961676E6F73746963203D40
:104720003D3D0D0A00000000312E204368697020D5
:1047300073746174653A204D6F64653D307825303F
:10474000325820547843746C3D30782530325820EC
:1047500000000000424144202865787065637420A1
:10476000307833442F30783833290D0A00000000A8
:10477000322E20436865636B436172643A20000007
:1047800044455445435445440D0A0000332E204708
:104790006574436172645549443A20004641494C6E
:1047A0002061742053656C6563740D0A000000007D
:1047B0004F4B0D0A0000000053554343455353200F
:1047C0002D205549443A202530325825303258257D
:1047D000303258253032580D0A0000004641494C0D
:1047E00020617420524551410D0A000020202052C2
:1047F000464366673D3078253032582052785365FD
:104800006C3D307825303258202874727920276E1C
:104810006663626F6F737427290D0A004641494C25
:1048200020617420416E7469636F6C6C6973696F89
:104830006E0D0A004641494C3A2077726F6E672030
:104840006C656E6774680D0A000000004641494CB3
:104850003A20424343206572726F720D0A000000D5
:104860004E4F204341524420286D6F766520636C83
:104870006F7365722C203C2033636D290D0A000094
:1048800000080140FCF71EFF3720FFF789F80546B6
:104890000420FFF785F804460120FFF781F80FB0E8
:1048A00023462946BDE8F04002466DA000F0A8BBB3
:1048B000FFF730F93720FFF773F8014678A000F0D2
:1048C0009FFB0520FFF76CF804460220FFF768F80D
:1048D00005460420FFF764F8014623462A4675A0E2
:1048E00000F08EFB0E20FFF75BF804460A20FFF76E
:1048F00057F805460620FFF753F8014623462A4697
:1049000078A000F07DFB1120FFF74AF80446142040
:10491000FFF746F805460D20FFF742F8014623460B
:104920002A467DA000F06CFB0820FFF739F804460A
:104930000120FFF735F80FB02246BDE8F0400146F0
:1049400083A000F05DBB8BA000F05AFB4F21262016
:10495000FFF7FCF82620FFF723F801468BA000F0B4
:104960004FFB91A077E09FA000F04AFB402126205A
:10497000FFF7ECF82620FFF713F8014683A000F0BC
:104980003FFB9EA067E0A8A000F03AFB2624072189
:104990000D20FFF7DBF800210120FFF7D7F87F217A
:1049A0000420FFF7D3F880210A20FFF7CFF8214633
:1049B0000920FFF7CBF80C210120FFF7C7F887216A
:1049C0000D20FFF7C3F80A20FCF77CFE0420FEF759
:1049D000E7FF06460620FEF7E3FF04460A20FEF73F
:1049E000DFFF054603462246314695A000F008FB4E
:1049F000A5B19DA000F004FB0024002D0BDD0920D3
:104A0000FEF7CEFF01469BA000F0FAFA641CAC4210
:104A100001DA102CF3DB21A000F0F2FA0FB0002134
:104A2000BDE8F0400120FFF791B800F045FA0446D8
:104A300092A000F0E5FA99A0216800F0E1FA9CA0AC
:104A4000616800F0DDFA9FA0A16800F0D9FAA2A089
:104A5000E168B8E4A5480FB0BDE8F04000F0D0BA76
:104A60005243353232206166746572207265736517
:104A7000743A205665723D307825303258202043F4
:104A80006F6D6D5265673D30782530325820204378
:104A90006F6D4972713D3078253032580D0A000033
:104AA0005243353232205665723A20307825303202
:104AB000580D0A002020436F6D4972713D307825F2
:104AC0003032582020436F6D49456E3D3078253097
:104AD000325820204469764972713D307825303251
:104AE000580D0A0020204572726F723D30782530D3
:104AF00032582020204649464F4C6576656C3D3043
:104B000078253032582020436F6C6C3D307825304A
:104B100032580D0A0000000020204269744672617C
:104B20006D696E673D3078253032582020547843C7
:104B30006F6E74726F6C3D30782530325820204D86
:104B40006F64653D3078253032580D0A0000000052
:104B50002020436F6D6D5265673D307825303258A7
:104B60002020537461747573323D3078253032588B
:104B70000D0A0000426F6F7374696E672052462001
:104B8000706F7765722E2E2E0D0A00005246436616
:104B9000673D30782530325820287761732030788F
:104BA0003438290D0A00000054727920276E66639C
:104BB0002720616761696E2E2049662063686970ED
:104BC000207265736574732C20706F776572207323
:104BD0007570706C7920746F6F207765616B2E0D26
:104BE0000A0000004C6F776572696E67205246209C
:104BF000706F7765722E2E2E0D0A00005472792088
:104C0000276E66632720616761696E2E2053686F87
:104C1000756C64206265206D6F72652073746162CB
:104C20006C652E0D0A0000003D3D3D20526177204D
:104C3000524551412054657374203D3D3D0D0A009D
:104C40004952513D307825303258204572723D30FE
:104C50007825303258204649464F3D2564206279F8
:104C60007465730D0A000000525820446174613A63
:104C70002000000025303258200000003D3D3D203E
:104C800055415254204572726F7220537461746999
:104C90007374696373203D3D3D0D0A00496E766172
:104CA0006C6964204C454E3A2020256C750D0A0035
:104CB000435243206661696C3A2020202020256CF5
:104CC000750D0A00454E4420627974652065727244
:104CD0003A20256C750D0A0054696D656F75743A3C
:104CE000202020202020256C750D0A00C01C030800
:104CF00010B50446FCF75AFE217849B1012906D1C6
:104D00006168411A322902D302212170606010BD0E
:104D10000121FAE700210148FFF7EABF88030020DC
:104D200001210148FFF7E4BF94030020034900205C
:104D3000087008720C3108700872704788030020F0
:104D40002DE9FC5F8046FCF731FE404D074600260A
:104D5000287A38B12E72B8F1000F11D088F80060AF
:104D6000687A0BE0394C0C340121207A58B1267254
:104D7000B8F1000F04D088F80010607A88F80100BC
:104D80000120BDE8FC9F2A780320022A08D122785E
:104D9000022A05D128706A7229722070627221720B
:104DA0002B4B4FF47A7C8846D3E90023CDE90023CE
:104DB00000226B464FEA000953F8220001780229CD
:104DC00009D14168791A614505D380F8009080F8CF
:104DD000099080F80880521C022AEDDB2878DFF861
:104DE00074B040F2B63A02280FD110215846FCF7B1
:104DF000D3FD50B96868381A3238504503D285F867
:104E0000098085F8088085F80090207802280FD165
:104E100020215846FCF7C0FD50B96068381A323876
:104E2000504503D284F8098084F8088084F8009003
:104E30002878032802D1287A00B92E702078032818
:104E400002D1207A00B9267000209AE7880300205A
:104E5000606000080010014010B5406A0021C18563
:104E6000C184FDF796FD10BD01680C3151E8002F9B
:104E700022F4907241E80023002BF5D1016814312F
:104E800051E8002F22F0010241E80023002BF5D168
:104E9000016B012909D101680C3151E8002F22F082
:104EA000100241E80023002BF5D1202180F84210A8
:104EB0000021016370470000004870479402002001
:104EC000084810B500210171C1708171C160016194
:104ED000411D01220448FDF705FFBDE8104003A075
:104EE00000F08EB8240000204C020020554152549E
:104EF00020436F6D6D2052656164790D0A000000DA
:104F00002DE9F05FFCF752FD3B4C0746DFF8EC90D3
:104F10002078A9F1100500264FF00108F8B1A0682B
:104F2000381A64282DD92670E868401CE86028E00B
:104F3000A52826D184F8008023E05A2802D0A5288D
:104F4000F8D01DE0022009E0811E212903D3286842
:104F5000401C286014E06070A6700320207010E0F0
:104F6000A17809F80100491CC8B2A0706178884294
:104F700007D30420F2E7EE281CD0A868401CA860E4
:104F80002670E0782179884233D01C482230405C7A
:104F9000491C01F07F012171A7602278052AEFD218
:104FA000DFE802F0070605040300E4E7D8E7CBE7F3
:104FB000C3E7BDE76078401EC0B28246014619F8DB
:104FC0000AB00E4800F056FE83450ED199F8000055
:104FD000421E032AD4D8E368002BD1D0AAF10102E3
:104FE000D2B209F101019847CAE76868401C6860BD
:104FF000C6E7BDE8F09F000024000020A4020020C6
:105000000FB4802100B5A1B023AB6846229A00F00E
:1050100091F96846FBF7EEF882B2642369460348CB
:10502000FDF784FE21B05DF814FB00004C02002067
:1050300070B5124CE2782379511C01F07F0199423E
:1050400002D00F4DA854E1700C490D4A8032897985
:105050000D2807D00A2805D03F2902D25054491CF8
:10506000A17170BD0029FCD000255554216911B1F2
:10507000034880308847A57170BD000024000020DF
:10508000C602002008B590F84210222901D0022063
:1050900008BD82684FF480539A4201D1016921B161
:1050A000816A9A421BD04AB10AE00268816A52685A
:1050B000C2F308020A80816A891C08E0026972B1A1
:1050C0000268526802F07F020A70816A491C81629C
:1050D000C18D491E0904090CC18503D01BE002687B
:1050E0005268F1E70168CA6822F02002CA600168CC
:1050F000CA6822F48072CA6001684A6922F001021B
:105100004A61202180F8421000214163026B012A8C
:1051100003D0FDF7F5FD002008BD016301680C31E7
:1051200051E8002F22F0100241E80023002BF5D1B6
:1051300001680A68D20602D50A6849680091818D23
:10514000FDF726FCE7E700000149C8607047000052
:10515000240000200149086170470000240000205D
:1051600030B593B014004FF0A5028DF800204FF039
:105170005A028DF8012004F102028DF802208DF808
:10518000280005D021B122460DF12900FAF7FCFFD5
:105190006D46621C0AA9E81CFAF7F6FF601CC1B252
:1051A0000AA800F067FD291964230871EE204871F0
:1051B000A21D69460248FDF7B9FD13B030BD0000DD
:1051C0004C02002070B5044600680169E26821F4D1
:1051D0004051114301612169A06808436169084396
:1051E0002168CA6841F20C639A430243CA6020688E
:1051F0004169A26921F44071114341611E4920684F
:10520000884202D1FCF708FE01E0FCF7F5FD00EB57
:10521000C00101EB0012606864218000B2FBF0F372
:10522000B3FBF1F36FF018067343B2FBF0F5B2FB7A
:10523000F0F605EB8305322303EB0515B5FBF1F51D
:10524000B6FBF1F605F0F00505EB0615B2FBF0F63E
:10525000B2FBF0F0B0FBF1F06FF01802504306EB38
:10526000800003EB0010B0FBF1F0216800F00F00AC
:105270002844886070BD000000380140816282854A
:10528000C28500214164222180F84210016921B1C8
:105290000168CA6842F48072CA6001684A6942F0D3
:1052A00001024A610068C16841F02001C16000202C
:1052B00070472DE9F843984617460D460446089E68
:1052C00024E0701C22D0FCF771FBA0EB0800B04278
:1052D0001AD8CEB12068C168490717D5802D15D0DE
:1052E000402D13D00168C94309070FD40168002578
:1052F000406800902046FFF7B7FD0820606484F8FE
:1053000040500120BDE8F8830320FBE720680068D7
:1053100035EA000004D00020B842D2D00020F1E7E6
:105320000120F9E70148FDF735BB00004C020020E1
:10533000FEE700007CB5044600201D461646002905
:105340000BD0491ECDE90041044B6A462946304640
:1053500000F0EEF8009A002111707CBD5F5C00083F
:105360000907090E002804DB00F1E02080F8001492
:10537000704700F00F0000F1E02080F8141D704726
:1053800002E008C8121F08C1002AFAD1704770470E
:10539000002001E001C1121F002AFBD1704700006C
:1053A00001490860704700000C0100202DE9FF5FF3
:1053B00082B00021DDE90430020DDDF840B0034386
:1053C00018D044F61050A2F2FF324243151411983F
:1053D00001281FD0A5EB0B00401C5FEA000A4FF02C
:1053E00000064E4FDFF83891B046504615D5CAF149
:1053F000000413E0119801244AA3012801D16FEAA7
:105400000B010298119AC0E90031C0E9024206B0CE
:10541000BDE8F09FCBF10000DFE704460021404AE1
:10542000491842EB0450CDE9001012E0E00707D024
:1054300032463B4640464946FBF761FA804689467C
:1054400032463B4610461946FBF759FA06460F46C8
:105450006410002CEAD1DDE90401DDE90023BAF192
:10546000000F06DAFBF74BFA42464B46FBF747FACA
:1054700005E0FBF7B6FA42464B46FBF7B2FA0446A4
:105480000E460022284BFBF733FB03D84FF0FF30CA
:10549000014607E00022254B20463146FBF788F9FC
:1054A000FBF70EFB102409E0002C0ADB0A22002384
:1054B000FBF7A5F8039B30321A55641E50EA01022F
:1054C000F2D1641C039AC4F111031444119A012A05
:1054D00003D0012208430DD10AE0084304D0002084
:1054E0004FF0110B119072E7A3EB0B056D1E0DE051
:1054F0005B4504DD4FF0000205F1010504E003DA2D
:105500004FF00002A5F10105002AECD00298119994
:10551000C0E90231C0E9004579E70000000014400D
:105520000000F03F300000000000F0430000E03FCA
:105530002DE9FF4F95B09B468946064600250FE2B0
:10554000252877D100242746F84A0121059400E058
:10555000044316F8013F203B01FA03F01042F7D153
:1055600030782A2811D06FF02F033078A0F1300264
:10557000092A16D8059A44F0020402EB820203EBD2
:1055800042021044761C0590EFE759F8042B05926F
:10559000002A03DA504244F40054059044F0020417
:1055A000761C30782E2816D116F8010F44F004042A
:1055B0002A280DD06FF02F023078A0F13003092B8C
:1055C00009D807EB870302EB4303C718761CF3E700
:1055D00059F8047B761C30786C280FD006DC4C28F8
:1055E00017D068280DD06A2814D104E0742810D090
:1055F0007A280FD10DE044F400140AE044F480143A
:1056000001E044F440147278824202D104F580141F
:10561000761C761C307866280BD013DC582877D09F
:1056200009DC002875D04528F6D04628F4D0472854
:105630001AD19DE118E0632835D0642879D0652817
:1056400012D195E1702873D008DC6728F1D0692861
:105650006FD06E280DD06F2806D1B5E073282CD0FE
:10566000752875D0782874D05A46179990476D1CC4
:1056700075E1C4F30250022809D003280DD0D9F8EF
:10568000001004280DD00D6009F1040967E1D9F874
:105690000010EA17C1E90052F6E7D9F800100D80B2
:1056A000F2E70D70F0E719F8041B8DF800100020E8
:1056B0008DF80100EA46012003E059F804AB4FF0F1
:1056C000FF3061074FF0000102D40DE008F1010145
:1056D0008846B9420FDA8045F8DB1AF8081000292D
:1056E000F4D108E008F1010188468142FADB1AF89A
:1056F00008100029F6D105985B46A0EB0807214663
:105700003846179A00F094FA284400EB080507E0A1
:105710004DE029E10DE01AF8010B5A461799904720
:10572000B8F10108F7D25B4621463846179A13E1D3
:1057300042E00A220092C4F302524FF0000A022A09
:1057400008D059F804CB032A4FEAEC710AD00DE0D7
:1057500029E02AE009F1070121F00702F2E802C17D
:10576000914609E00FFA8CFC4FEAEC71042A03D150
:105770004FFA8CFC4FEAEC71002907DA0A46002147
:10578000DCF1000C61EB02012D2202E0220504D5C0
:105790002B228DF80420012203E0E20701D0202211
:1057A000F7E7904659E00A2102E010220DE01021AF
:1057B0004FF0000A00910BE010224FF0000A44F075
:1057C00004040827009203E008224FF0000A009228
:1057D000C4F30252022A05D059F804CB0021032A4F
:1057E00008D009E009F1070121F00702F2E802C13F
:1057F000914605E01FFA8CFC042A01D10CF0FF0C45
:105800004FF00008220728D5702806D0009B83F0AF
:10581000100353EA0A0305D00EE040228DF804205D
:10582000012208E05CEA010206D030228DF8042053
:105830008DF8050002229046009B83F0080353EA8E
:105840000A030AD15CEA010201D1620705D53022C0
:105850008DF804204FF001087F1E582804D034A092
:1058600003900EA802900DE036A0F9E7534660467B
:10587000009AFAF7C4FE84460398825C0298401EA0
:10588000029002705CEA0100F0D1029806A9081AA1
:1058900000F1200A600702D524F4803400E00127DB
:1058A000574502DDA7EB0A0000E0002000EB0A01EB
:1058B000009005984144401A0590E00306D45B46E9
:1058C0002146179A059800F0B3F90544002706E031
:1058D00001A85A46C05D179990476D1C7F1C47452B
:1058E000F6DBE0030CD55B462146179A059800F0DD
:1058F0009FF9054404E030205A46179990476D1CE3
:105900000099481E00900029F5DC08E002980299F1
:105910005A460078491C0291179990476D1CBAF1BC
:105920000001AAF1010AF1DC65E10000092801008B
:105930003031323334353637383961626364656605
:1059400000000000303132333435363738394142C7
:10595000434445460000000000F058F90544761C19
:10596000307800287FF4ECAD19B02846BDE8F08F00
:10597000620700D4062709F1070222F0070CFCE8B1
:105980000223E14603F000485FEA080C02D00FF260
:10599000702C0DE05FEA045C02D50FF2682C07E082
:1059A0005FEAC47C02D00FF2602C01E0AFF2700C11
:1059B0004FF0FF3823F00043CDF850C065280CD0DD
:1059C00006DC452809D046281DD047283DD13DE0BA
:1059D000662818D067287ED138E00021112F01DB1E
:1059E000112000E0781CCDE9000106A90EA8FFF700
:1059F000DDFCDDE90F010E9A03910021009207F111
:105A0000010A04914DE04FF000400097CDE90110EC
:105A100006A90EA8FFF7CAFCDDE90F0203920E9B50
:105A200011990022DDF80CA00093049211B9791CA1
:105A300000EB010AB7EB0A0004D4C0F1FF3007F114
:105A4000010A0490AAEB0700019044E0012F00DA5C
:105A500001270021112F01DD112000E03846CDE99A
:105A6000000106A90EA8FFF7A1FCDDE90F010E9ABF
:105A70000391002104910092BA4621070CD40399A6
:105A8000514500DA8A46BAF1010F05DD009AAAF104
:105A90000101515C302908D0B84202DA10F1040F3C
:105AA00006DA0121CDE9011015E0AAF10101E9E7CB
:105AB000002805DC049901440491AAEB000102E0EE
:105AC000411C514500DD8A460499401A401C019052
:105AD0004FF000400290200704D40198504501DBAC
