:020000040800F2
:100000000807002045010008073200083F2C0008BF
:1000100005320008590F00080D43000800000000D9
:100020000000000000000000000000006D37000824
:100030005B0F000800000000093200087B38000850
:100040005F0100085F0100085F0100085F01000810
:100050005F0100085F0100085F0100085F01000800
:100060005F0100085F0100085D0F00085F010008E4
:100070005F0100085F0100085F0100085F010008E0
:100080005F0100085F0100085F0100085F010008D0
:100090005F0100085F0100085F010008630F0008AE
:1000A0005F0100085F0100085F0100085F010008B0
:1000B0005F0100085F0100085F0100085F010008A0
:1000C0005F0100085F0100085F0100085F01000890
:1000D0005F010008014300085F0100085F0100089C
:1000E0005F0100085F0100085F0100085F01000870
:1000F0005F0100085F0100085F0100085F01000860
:100100005F0100085F0100085F0100085F0100084F
:100110005F0100085F0100085F0100085F0100083F
:100120005F0100085F0100085F0100085F0100082F
:10013000DFF80CD000F0D0FC00480047554E000816
:10014000080700200648804706480047FEE7FEE70C
:10015000FEE7FEE7FEE7FEE7FEE7FEE7FEE7FEE777
:10016000DD38000831010008202A04DB203A21FA9A
:1001700002F00021704721FA02F3D040C2F12002C0
:100180009140084319467047D2B201E000F8012BB4
:10019000491EFBD270470022F6E710B513460A4607
:1001A00004461946FFF7F0FF204610BD421C10F828
:1001B000011B0029FBD1801A704710B5002200E016
:1001C000521C835C8C5CA34201D1002BF8D1D8B2C5
:1001D000E1B2401A10BD30B505460020034600E0EC
:1001E0005B1C934205D2EC5CC85C201A01D1002C48
:1001F000F6D130BD0FB400B58DB010A909900B90A9
:1002000000914FF0FF300A9000200C9005480690B6
:10021000054807906A4609A80F9900F011FA0DB039
:100220005DF814FB5D0600087B0600082DE9FF5F02
:100230001D464FF0FF3BD5E9014691465F464FF022
:100240000008A9697F1C01988847296A8246884767
:100250000028F6D1BAF1FF3F0CD024F4C064002E80
:1002600019DD600614D5BAF12B0F09D0BAF12D0FA4
:100270000ED103E0584604B0BDE8F09F44F480641A
:10028000A9697F1C01988847761E8246002E02DDF0
:10029000BAF1300F03D0B9F1000F26D032E0A969CE
:1002A000761E44F400747F1C019888478246002E15
:1002B00005DDBAF1780F06D0BAF1580F03D0B9F1C5
:1002C000000F10D01EE0B9F1000F02D0B9F1100FED
:1002D00018D1A969761E24F400747F1C0198884700
:1002E0008246102002E0082000E00A20814609E052
:1002F00008FB0908A969761E44F400747F1C019864
:1003000088478246002E05DD4946504600F084F9B4
:100310000028EDDAE96901988847A00502D46FF05A
:100320000100A8E7E00725D1600613D5600502D5D6
:10033000C8F1000000E0404629680A1D2A600968EB
:10034000220501D5087015E0220701D5088011E0CB
:1003500008600FE02868011D29600068210502D5AA
:1003600080F8008006E0210702D5A0F8008001E0B7
:10037000C0F8008038467EE7F0B480EA0102D40F6E
:100380004200B2EB410F02D20246084611464A0033
:1003900042D0C30DDDB2C1F3C752AD1A202D35DAFC
:1003A000C1F3160141F4000204B15242C5F1200626
:1003B00002FA06F12A411044B3EBD05F23D0C4B156
:1003C000012DA0EBC35009DCF0BC4FF0004202EA63
:1003D000C352DBB200F5000000F069B9400000F143
:1003E000807000EBC350A0F1807040EAD1704900EA
:1003F00009E0490841EAC071A0EBC35000F50000D4
:10040000400800EBC350F0BC00F048B96142012243
:1004100002EB4101001BF6E7F0BC704781F00041A0
:10042000AAE780F00040A7E780EA010210B502F0D9
:100430000043400022D04A001FD0010E01EB1261A0
:10044000C0F35600C2F3560240F4000042F400022A
:10045000A0FB022000047F39140400D0401C50EAA5
:10046000124001D44000491EC2B20C0604EBD01069
:10047000401C4008802A02D003E0002010BD20F07C
:100480000100002900DA0020184310BD30B480EAD2
:10049000010202F0004530F0004221F0004013D08C
:1004A00090B1C30DD40DC2F31601C0F31600E41AC7
:1004B00041F4000140F400027D34914201D3641CF8
:1004C00000E04900002C02DA30BC002070474FF4F5
:1004D00000000023914201D3891A034340084FEAE8
:1004E0004101F7D151B1914202D14FF0004105E0F5
:1004F00002D24FF0010101E06FF0010103EBC450A3
:10050000284430BC00F0CAB8420005D0C0F3C7523E
:100510005242914201DC0020704700EBC15070470D
:10052000C10F80EAE0700844CA079623002100F05A
:10053000BEB896230022114600F0B9B820F0004062
:10054000C10DC0F3160040F400007F2901DA00203D
:100550007047962903DCC1F19601C840704796396F
:100560008840704700F0004230F000400AD0C10DD2
:1005700001F56071C0F3160042EA0151C20840075C
:100580001143704700200146704730B50B460146C5
:1005900000202022012409E021FA02F59D4205D322
:1005A00003FA02F5491B04FA02F52844151EA2F1CC
:1005B0000102F1DC30BD2DE9F05F054600209246D6
:1005C0009B4688460646814640241BE02846414615
:1005D00047462246FFF7C8FD53465A46C01A914186
:1005E00010D311461846224600F088FA2D1A67EB00
:1005F00001084F4622460120002100F07FFA17EB48
:1006000000094E41201EA4F10104DFDC48463146BA
:100610002A464346BDE8F09F3A2800D2303820F001
:100620002002412A01D3A2F13700884201D34FF0C2
:10063000FF30704702681144137801601846704714
:10064000D1600449516104491162002111611146D0
:1006500000F07ABA350600083F0B0008426842B144
:10066000016811F8013B23B1521EC0E9001218467F
:1006700070470121C160881E704742685AB1C36843
:10068000016843B983688B4205D0491E521CC0E9FA
:100690000012002070474FF0FF3070470029A8BFBC
:1006A0007047401C490008BF20F00100704710B49B
:1006B000B0FA80FC00FA0CF050EA010404BF10BC50
:1006C000704749B1CCF1200421FA04F411FA0CF17D
:1006D00018BF012121430843A3EB0C01CB1D4FEAB6
:1006E00000614FEA102042BF002010BC704700EBB1
:1006F000C35010440029A4BF10BC7047401C4900DF
:1007000008BF20F0010010BC7047F0B4002802DCE4
:10071000F0BC00207047C0F3C751C0F3160040F48E
:100720000000CA0701D14000491E3F2202EB6105CB
:10073000002211464FF4000626FA01F31344D418A0
:10074000844201D8001B1A464000491C1729F3DDDA
:100750005100814202D24FF0FF3100E0002102EB54
:10076000C550F0BCFFF79ABF2DE9FE4F804681EAE5
:100770000300C00F0C46009021F0004123F000451B
:10078000B8EB0200A94105D24046214690461C46DE
:100790000B46024623F00040104347D0270DC7F315
:1007A0000A00C3F30A510290401A019040286BDA04
:1007B000C3F3130040F4801B0098924620B100233D
:1007C000D2EB030A63EB0B0B01985946C0F14002D0
:1007D000504600F093F906460D4650465946019A98
:1007E00000F09BF910EB08006141002487EA1152E8
:1007F00084EAE7731A4340D0009A62B3019A012A4F
:100800004FEA075215DC001B61EB02014FF000427A
:1008100002EA0752CDE90042001C41F58011324640
:100820002B4600F036FB03B0BDE8F08F4046214672
:10083000F9E7001B61EB0201001C41F58013001871
:100840005B412018A2F5001747EB030140EAD57081
:10085000B6196D4111E06D084FEA360645EAC075DC
:100860004FEA0752001B61EB0201001C41F58011A9
:1008700049084FEA30000019514132462B4603B077
:10088000BDE8F04F00F0F6BA0098012240000023C6
:10089000D0EB020263EBE073009821464FEAE0746C
:1008A000B8EB000061EB0401E9E783F000435BE78C
:1008B00081F0004158E72DE9FE4F81EA030404F07E
:1008C000004421F0004100944FF0000B23F000435E
:1008D00050EA01045ED052EA03045BD0C3F30A5429
:1008E000C1F30A552C44A4F2F3340194A0FB025442
:1008F000C1F3130141F48011C3F3130343F48013D4
:1009000001FB024400FB034E840A970A44EA815427
:1009100047EA8357A4FB076802958D0A05FB078504
:100920004FEA932C04FB0C542705029D4FEA06580E
:1009300047EA1637B5EB08056EEB070C870E920EEB
:1009400047EA811742EA8312A7FB0201B6EB0B01CB
:1009500064EB00042B0D43EA0C335E1844EB1C508F
:10096000DA465146E7FB0201C5F313044FEA0B33A5
:1009700043EA14534FEA0432019C43EA0603A4F10C
:100980000C040294009CCDE900B400F082FA03B09C
:10099000BDE8F08F00200146F9E72DE9F04D81EA2E
:1009A000030404F0004B21F0004514464FF0000A08
:1009B00023F0004150EA050220D054EA01021DD084
:1009C000C5F30A570246C5F31303C1F31300C1F37D
:1009D0000A5640F4801543F48013A7EB0608101B59
:1009E000D64608F2FD3873EB050002D308F1010882
:1009F00001E092185B41B8F1000F03DA00200146D4
:100A0000BDE8F08D00204FF48011064684460EE0CC
:100A1000171B73EB050705D3121B63EB0503064396
:100A20004CEA010C49084FEA300092185B4150EA49
:100A30000107EDD152EA030012D082EA040083EAF2
:100A40000501084305D0101BAB4106D2012200234B
:100A500006E000224FF0004302E06FF00102531065
:100A60001AEB06004CEB085110EB0A0041EB0B01AE
:100A7000BDE8F04D00F0FEB9C1F30A52C1F3130115
:100A800040F2FF3341F480119A4202DA002001461D
:100A9000704740F233439A42A2F2334202DC5242A0
:100AA000FFF762BB00F02AB830B5041E71F10004F4
:100AB00004DB4FF00044404264EB0101141E73F16B
:100AC000000405DB1C464FF00043524263EB040375
:100AD000994208BF904230BD064C074D06E0E068E1
:100AE00040F0010394E8070098471034AC42F6D375
:100AF000FFF722FBC0500008E0500008202A04DB6A
:100B0000203A00FA02F1002070479140C2F1200320
:100B100020FA03F3194390407047202A06DBCB17D5
:100B2000203A41FA02F043EAE07306E041FA02F3A8
:100B3000D040C2F120029140084319467047C0B22C
:100B40004FF4F05100F0F4B92DE9F34F8BB04FF0B2
:100B5000000801F10C000C464FF0010B46460DF168
:100B6000080A01906269012101989047051E2DD065
:100B7000252D2CD0216A8847C0B1626901210198D6
:100B80009047216A88470028F7D1411E6269019881
:100B9000904700E0761CA1690B988847216A884736
:100BA0000028F7D1E1690B988847DBE7A1690B982A
:100BB00088470746A84201D1761CD3E7E1690B9824
:100BC00088477F1C02D1B8F1000F6FD046E10027A3
:100BD00062693D463946019890472A2804D16269E6
:100BE0000121019890470125DFF884926269012173
:100BF00001989047A0F130010A290AD24F45E5DC5F
:100C000007EB870100EB4107303FDFD445F01005CB
:100C1000ECE7E90601D46FF000476C280AD04C28B5
:100C200014D0682815D06A280DD074281CD07A28D2
:100C30001AD01DE062690121019890476C2802D00A
:100C400045F0040514E045F002050DE045F02005EF
:100C50000AE06269012101989047682802D045F0B6
:100C6000080505E045F40065626901210198904797
:100C7000C4E9015765283DD019DC58287AD00CDC2E
:100C8000452837D004DC252826D0412831D131E051
:100C900046282FD047282CD12CE05B2877D061281C
:100CA00028D063287CD0642823D15AE0D0E06F2874
:100CB00048D008DC66281DD067281BD0692821D0C1
:100CC0006E2816D127E0702845D0732868D0752883
:100CD00047D078280DD14DE0A1690B98884705468B
:100CE00025283FF469AFE1690B9888476D1C3FF4F4
:100CF0006AAFB3E023466A466FF001000B99AFF389
:100D000000809EE045F040006060A80723464FF059
:100D1000000236D43EE0E8077FF447AF2068011DAB
:100D200021600068290501D506701BE7290701D558
:100D3000068017E7A90703D5F117C0E9006111E79D
:100D400006600FE745F040006060A80723464FF0BB
:100D5000080216D41EE040F60E0125EA010060608C
:100D600016E045F040006060A80723464FF00A02F5
:100D700007D40FE045F040006060A80708D523467F
:100D800010226FF001000B99AFF3008059E007E0EB
:100D9000234610226FF001000B99FFF747FA50E04D
:100DA0004FF000094F464B46632802D05B2806D01F
:100DB00040E0E80601D40120A06001273AE0626922
:100DC0000121019890475E2805D14FF00109626921
:100DD000494601989047216939B900210A4653468E
:100DE00043F82120491C0829FADBB0B3216969B90D
:100DF000C11700EBD16253110AEB830122F01F02ED
:100E0000821A01200B68904003430B606269012144
:100E1000019890475D28E8D1B9F1000F09D0002072
:100E2000514651F82020D24341F82020401C082888
:100E3000F7DB02AB224600976FF001000B99AFF38E
:100E4000008000280CDA401C08D1BBF1000F05D04F
:100E50004FF0FF300DB0BDE8F08FFFE74046F9E7F7
:100E6000E90701D108F1010806444FF0000B79E6CB
:100E7000CCCCCC0C10B5141E73F1000408DA401C65
:100E800041F1000192185B411A4301D120F00100A9
:100E900010BD2DE9F04D92469B4611B1B1FA81F299
:100EA00002E0B0FA80F220329046FFF727FE0446B7
:100EB0000F4640EA0A0041EA0B0153465A460843EE
:100EC00013D0114653EA010019D0C8F14002504630
:100ED000FFF74AF905460E46504659464246FFF787
:100EE0000DFE084305D0012004E020463946BDE848
:100EF000F08D0020054346EAE0762C4337430A98FC
:100F00006305E40AA0EB08000022FD0A44EA475406
:100F10000A3002D500200146E9E7010510196941B0
:100F2000DDE9084500196941BDE8F04DA2E7000080
:100F30007F2801D9002208E0064A02EB5002C007D0
:100F4000127800D1120902F00F02012090400840EF
:100F50007047000028500008FEE77047102000F09E
:100F60004BBB202000F048BB72B6FEE703480021CF
:100F7000017041704160012181707047380000208C
:100F800008280BD206490A78904207D00870002042
:100F9000487001208870002001F07ABE7047000080
:100FA00038000020F8B51B4C1B49207800EB4000AE
:100FB00001EBC00500F032FC297C012910D96A8AB6
:100FC00072B16368C31A93420AD36278521CB2FBAF
:100FD000F1F301FB1321617060600120A07002E059
:100FE000A078002814D0607855F82060002E0FD02B
:100FF0006B7D2A7DC3F1F001C2F5A07001EBD171C8
:101000004008C1F34F01009601F01AFE0020A070C5
:10101000F8BD000038000020684F000830B5B3F577
:10102000804F05D06FF0704140F82210002030BD95
:101030008C690B688D6823434C688989240144EAD4
:101040000524234343EA014150F82230014C234058
:101050001943E9E70000F0CF10B50A6850F82230D4
:1010600023F0010340F822308C68082C23D00023A1
:101070004A682243CC681C430B6922431A434B69DC
:101080000E4C1A43CB691A430B6A1A434B6A1A4334
:101090008B6A1A43CB6A1A430B6B1A438B6913434F
:1010A0004A6B09681A4350F82130A343134340F8B0
:1010B0002130002010BD4023DAE700007FFF0F0041
:1010C00030B5D1E9003443EA04138C688D892402D9
:1010D00044EA054423430C8A074D00EB820005EBEC
:1010E000045423430C7D6D0105EB0464896923439B
:1010F0000B434360002030BD0000F0FF70B5194D78
:101100000446687884422BD005F1200151F8242050
:1011100051F8201014A002F099FF6C70052C1FD21A
:10112000DFE804F0030A1E0614000020FFF728FF82
:10113000BDE8704002F040BA0020FFF721FFBDE893
:10114000704040220021084602F03CBA00221146BD
:10115000FF2002F037FABDE870400320FFF710BF10
:1011600070BD0000400000205B46534D5D2025739C
:10117000202D3E2025730D0A000000000148407814
:10118000704700004000002010B5084C002060703F
:101190006060A060E060206100F040FB6061FFF7EC
:1011A000E5FEBDE810400020FFF7EABE4000002049
:1011B00001490870704700004000002005280ED249
:1011C000DFE800F0030507090B0006A0704707A041
:1011D000704708A070470AA070470BA070470CA08A
:1011E0007047000049444C45000000004143544909
:1011F00056450000494E54455241435400000000FA
:10120000534C454550000000414C455254000000ED
:101210003F3F3F0030B58DB000F000FB594D044614
:101220006868201A0A282DD304A86C6002F0E4FD37
:1012300040B36C616878032803D020B1012806D040
:1012400012E0002000E00120FFF758FF0CE0022030
:10125000FFF754FF0120FFF793FE4FF4FA630022DB
:101260008021FF2002F082F946499DF811003431B7
:1012700051F820209DF810001C3951F8201042A090
:1012800002F0E4FEA868201A322827D3AC6001F0EF
:10129000DBFF18B301A801F0F5FF04281CD16C6135
:1012A000687803282DD00220FFF728FF0220FFF7DF
:1012B00067FE002140F6B833FF22084602F056F9D7
:1012C0009DF8070000909DF806309DF805209DF8D8
:1012D000041031A002F0BAFE02F01CF8287818B30E
:1012E000E868201A14281FD305A8EC6001F094FDCB
:1012F000D0B105A801F01AFD012806D0022809D0B6
:1013000012E00020FFF7FAFEDAE70420FFF7F6FE0E
:101310002AA007E06C616878032802D10020FFF75B
:10132000EDFE2AA002F092FE2869201A322802D38C
:101330002C61FFF737FE02F057F902F039FE6869B9
:101340006978201A032910D2DFE801F011020800A1
:1013500047F23051884208D3002004E042F2107175
:10136000884202D30120FFF7C9FE0DB030BD1B49F2
:101370008842FAD30320FFF7C1FE0420FFF700FEE6
:10138000F3E70000400000205B544F5543485D20C8
:1013900025732025730D0A005B4E46435D20436193
:1013A0007264205549443A2025303258253032584D
:1013B00025303258253032580D0A00005B504F530B
:1013C000455D2046414C4C0D0A0000005B504F53D8
:1013D000455D205348414B450D0A0000E093040051
:1013E00010B590F821100022022905D00421816354
:1013F00080F82020012010BD01680B6823F00E0347
:101400000B6001680B6823F001030B6090F840301B
:10141000C46B012101FA03F3636080F8211080F8A6
:101420002020104610BD00002DE9F05F90F821103B
:101430000024022903D004218163012485E001688E
:101440000A6822F00E020A6001680A6822F00102AE
:101450000A603F4E3E4FB215DFF8F4C0DFF8F0905F
:10146000DFF8ECA0DFF8E8B0DFF8E4E00168783FEF
:1014700013011502ACF1640CA9F15009AAF13C0A60
:10148000ABF1280BAEF1140E4FF48018B14227D9FE
:10149000B9420ED0614512D049451DD0514518D0F2
:1014A000594518D0714501D1424615E0294EB14247
:1014B00001D1012210E0274E1436B14201D1102291
:1014C0000AE0244E2836B14206D0224A3C329142EC
:1014D00001D11A4600E02A461E49091F0A602BE086
:1014E000B94213D0614517D0494522D051451DD08E
:1014F00059451DD0714501D142461AE0B14202D191
:101500004FF0807215E0134EB14201D1012210E07C
:10151000104E1436B14201D110220AE00D4E283689
:10152000B14206D00B4A3C32914201D11A4600E04A
:101530002A46074980394A60012180F8211000219C
:1015400080F82010416B01B188472046BDE8F09F2C
:10155000800002400804024070B5044600F05EF9C5
:101560000546601C02D004480078044400F056F997
:10157000401BA042FAD370BD0800002030B585B0F2
:101580000020009001900290039012480168002909
:101590001ED1012101601048416941F4807141610F
:1015A0004069022400F4807004904FF68470CDE905
:1015B0000004032569460395084800F029F84CF219
:1015C000B370CDE9000469460395054800F020F8A2
:1015D00005B030BD0000002000100240001801409E
:1015E00000140140102803D0202803D102F0F4BBDE
:1015F00002F0ECBB70470000044910B50A680242D3
:1016000002D00860FFF7EEFF10BD00001404014097
:101610002DE9F84FDFF8C8910024A9F1040B234607
:101620000F2709F1040AABF1040ED1E00125A54012
:1016300006EA0502AA4276D1DFF8A8C14E68A6EBF9
:101640000C0866452BD00DDC032E34D005DC36B3F8
:10165000012E19D0022E2FD11BE0112E16D0122EE2
:101660002AD119E0B8F5881F19D006DCB8F5803FFB
:1016700015D0B8F5801F1FD111E0B8F5001F0ED0AE
:10168000B8F5041F18D10AE0CB6815E0CB681B1D24
:1016900012E0CB6808330FE0CB680C330CE08B68AA
:1016A0002BB1012B4FF0080303D0456104E0042364
:1016B00002E0056100E00023FF2A01D8064601E0B0
:1016C00000F104064FEA840501D9A5F12005D6F8FA
:1016D000008007FA05FC28EA0C0803FA05F548EA39
:1016E0000508C6F800804D68ED0070D53E4DAE6926
:1016F00046F00106AE61AD6924F0030605F0010570
:1017000000953A4D06EB050CDCF80850A607360F9D
:1017100007FA06F825EA0805DFF8D480404503D12A
:101720004FF0000825E052E0DFF8C880404502D1C4
:101730004FF001081DE0DFF8C080404502D14FF0B6
:10174000020816E0DFF8B480404502D14FF00308EC
:101750000FE0DFF8AC80404502D14FF0040808E00C
:10176000DFF8A080404502D14FF0050801E04FF0BE
:10177000060808FA06F848EA0508CCF808804D681B
:10178000D9F80060ED024D4601D5164300E09643BE
:101790002E604D68DAF80060AD02554601D516435B
:1017A00000E096432E604D68DBF80060AD035D46B7
:1017B00001D5164300E096432E604D68DEF80060C8
:1017C000ED03754601D5164300E096432E60641C78
:1017D0000A681646E2407FF429AFBDE8F88F0000A2
:1017E00008040140000011100010024000000140F8
:1017F00000080140000C01400010014000140140AD
:1018000000180140001C01408068084000D0012001
:1018100070470AB1016170470904FBE7014880681D
:10182000704700000800002070B5040025D094F82F
:101830003D00002520B984F83C50204600F0B8F85F
:10184000242084F83D002068016821F00101016036
:101850002068016841F4004101602068016821F4BA
:101860000041016000F000FA4D4A6168914201D8E0
:101870004C4900E04C49884201D2012070BD4B49DF
:101880002368B0FBF1F15E6826F03F060E435E6010
:101890006368934206D94FF4967359434FF47A73B1
:1018A000B1FBF3F12368491C1E6A26F03F06314361
:1018B00019626168914210D84900401EB0FBF1F2F4
:1018C000521CC2F30B02042A01D2042022E0B0FB16
:1018D000F1F0401CC0F30B001CE0A268F2B301EB76
:1018E000C10303EB0116431EB3FBF6F35B1C43F489
:1018F00080431B0549D092B301EBC10202EB0111F9
:10190000401EB0FBF1F0401CC0F30B0040F48040DF
:1019100040F400402168CA694CF6FF739A431043B3
:10192000C861D4E9071001432068026822F0C002B0
:1019300011430160D4E9030101432068826848F241
:10194000FF339A4311438160D4E9050108432168BC
:10195000CA6822F0FF021043C86001E00EE016E002
:101960002068016841F0010101602564202084F8AD
:101970003D00256384F83E50002070BD01EB410618
:10198000431EB3FBF6F35B1CB3E70120C2E701EB98
:101990004101401EB0FBF1F0401CC0F30B00B7E763
:1019A000A086010080841E0000093D0040420F0017
:1019B00010B586B000210091019102910391006859
:1019C0000F4988421AD10F4CA06940F00800A0616D
:1019D000A069694600F008000490C0200090122021
:1019E0000190032003900848FFF712FEE06940F4DD
:1019F0000010E061E06900F40010049006B010BD32
:101A00000054004000100240000C01400248816870
:101A1000027811448160704708000020074810B523
:101A2000016841F010010160032000F075F800200A
:101A300000F006F800F024F8002010BD002002405D
:101A400070B50D4D04464FF47A712878B1FBF0F073
:101A50000A490968B1FBF0F000F04DFD48B9102CBF
:101A600007D200222146501E00F036F800206C609C
:101A700070BD012070BD000008000020140000208F
:101A80000C4808B5816941F001018161816901F06B
:101A900001010091C16941F08051C161C06900F04C
:101AA000805000900448416821F0E06141F00071ED
:101AB000416008BD0010024000000140002809DB21
:101AC00000F01F02012191404009800000F1E02058
:101AD000C0F8001170470000F0B40E4B1B680C46B4
:101AE000C3F30223C3F10705042D00D90425191DF2
:101AF000072901D2002300E0DB1E012606FA05F1CA
:101B0000491E214099409E40761E16403143F0BC4C
:101B100002F014BC0CED00E0064900F00702086872
:101B20004FF6FF03184040EA0220034A10430860C2
:101B3000704700000CED00E00000FA052DE9F047C9
:101B40000F46050061D0434E306800F00700B842F0
:101B500009D2306820F0070038433060306800F068
:101B60000700B84251D128683B4C810712D5400785
:101B700003D5606840F4E06060602878000703D512
:101B8000606840F4605060606068A96820F0F00010
:101B9000084360602878C00728D06868012810D002
:101BA0002168022810D0890700292EDA616821F007
:101BB000030101436160FFF731FE804641F288393D
:101BC0000DE021688903EFE78901EDE7FFF726FEC5
:101BD000A0EB0801494502D90320BDE8F087606801
:101BE000696800F00C00B0EB810FEFD1306800F0B5
:101BF0000700B8420BD9306820F007003843306046
:101C0000306800F00700B84201D00120E5E72878ED
:101C1000400705D56068E96820F4E060084360602B
:101C20002878000706D56068296920F4605040EAEA
:101C3000C100606000F038F86168084AC1F3031120
:101C4000515CC8400649086006480068FFF7F8FE86
:101C50000020C2E700200240001002403E4F000872
:101C6000140000200C000020044805490068496861
:101C7000044AC1F30221515CC8407047140000209F
:101C8000001002404E4F00080448054900684968AA
:101C9000044AC1F3C221515CC840704714000020BF
:101CA000001002404E4F00080E4A51680E4801F0E5
:101CB0000C03042B11D0082B0FD10C48C1F3834324
:101CC000C903C05C0AD55168084AC1F34041921E5D
:101CD000515C054A5043B0FBF1F07047044948435A
:101CE000704700000010024000127A002E4F0008DA
:101CF00000093D002DE9F84F040070D02078C04D58
:101D0000C00749D06868C0F38100012807D068681F
:101D1000C0F38100022809D16868C00306D528688D
:101D2000800339D560680028E7D035E06068B0F5F9
:101D3000803F0BD010B1B0F5A02F11D0286820F44F
:101D400080302860286820F4802002E0286840F471
:101D500080302860606890B1FFF760FD06460AE0B9
:101D6000286840F480202860F0E700BFFFF756FDA8
:101D7000801B642873D828688003F7D50CE0FFF730
:101D80004DFD064605E000BFFFF748FD801B6428B7
:101D9000F0D828688003F7D420789A4E80074FF057
:101DA00001094FF0000839D5686810F00C0F07D012
:101DB0006868C0F38100022809D16868C00306D4AE
:101DC0002868800714D52069012808D110E020690F
:101DD000B0B1C6F80090FFF721FD074605E00AE123
:101DE000FFF71CFDC01B0228C4D828688007F7D560
:101DF0002868616920F0F80040EAC10028600DE021
:101E0000C6F80080FFF70AFD074604E0FFF706FD6D
:101E1000C01B022823D828688007F7D42078000741
:101E20002CD57948A169D9B1C0F80090FFF7F6FC2C
:101E3000074604E0FFF7F2FCC01B02280FD8686ACF
:101E40008007F7D571484FF4FA510068B0FBF1F004
:101E5000009000BF0098411E0091FAD20EE080E091
:101E6000C0F80080FFF7DAFC074604E0FFF7D6FC75
:101E7000C01B022875D8686A8007F7D4207840070D
:101E800060D5E8690027C00008D4E86940F08050B8
:101E9000E861E869012700F0805000905C48016823
:101EA000C90513D40168834641F480710160FFF7CE
:101EB000B5FC824606E000BFFFF7B0FCA0EB0A00CD
:101EC00064284ED8DBF80000C005F5D5E06801288D
:101ED0000AD008B1052813D0286A20F00100286232
:101EE000286A20F0040002E0286A40F0010028621D
:101EF000E06841F2883B98B1FFF790FC82460BE026
:101F0000286A40F004002862EEE700BFFFF786FC75
:101F1000A0EB0A0159455AD8286A8007F6D50CE08B
:101F2000FFF77CFC824605E0FFF778FCA0EB0A0196
:101F300059454CD8286A8007F6D41FB1E86920F0CB
:101F40008050E861E06988B36968C1F381010229C2
:101F500044D00228C6F8608004D0FFF75FFC044636
:101F600038E034E0FFF75AFC074604E0FFF756FC80
:101F7000C01B02282BD828688001F7D4206AB0F54E
:101F8000803F05D16868A16820F40030084368608C
:101F9000D4E908010843696821F4741108436860B2
:101FA000C6F86090FFF73AFC044606E025E000BF63
:101FB000FFF734FC001B022809D828688001F7D5F8
:101FC0001BE000BFFFF72AFC001B022802D90320F8
:101FD000BDE8F88F28688001F4D40EE00128F7D01E
:101FE0006868226A00F48031914204D1616A00F489
:101FF0007010884201D00120EAE70020E8E70000E5
:1020000000100240000042428004424214000020BE
:102010000070004070B5040009D0606A002540B12E
:1020200025616561A56294F8510040B10CE0012082
:1020300070BD6068B0F5827FF4D0E561F2E784F8A6
:102040005050204600F040F8022084F851002068EB
:10205000016821F040010160A088218900F48270AC
:1020600001F404410843A18901F400610843217C83
:1020700001F002010843217D01F001010843218B99
:1020800001F400710843217F01F03801084394F8FE
:10209000201001F080010843218D01F40051084314
:1020A00021680860A069042101EA104021684860A5
:1020B0002068C16921F40061C1616565012084F86F
:1020C0005100002070BD000030B585B000240094A0
:1020D00001940294039400681449884223D114485F
:1020E000816941F480518161816901F480510491D9
:1020F000816941F00401816180690E4D00F00400A6
:102100000490A020009002200190032003906946D3
:102110002846FFF77DFA4020CDE9000469462846AD
:102120000294FFF775FA05B030BD000000300140A1
:1021300000100240000801402DE9F84F984616466D
:102140008A460446FFF76AFB814694F8510001284D
:102150001ED1BAF1000F73D0002E71D094F8500048
:10216000012815D0012784F85070032084F851000D
:1021700000256565C4F830A0A686E686A563A58718
:10218000E58765642564A068B0F5004F03D00CE0D6
:102190000220BDE8F88F2068016821F0400101604D
:1021A0002068016841F480410160206801684906A7
:1021B00003D4016841F040010160E068B0F5006FB0
:1021C000606803D048B3012E27D047E008B1012E44
:1021D0001FD1206B21680088C86006E020688168F4
:1021E000890709D5216B0988C160206B801C206399
:1021F000E08E401EE0860CE0FFF710FBA0EB09012B
:10220000414503D3B8F1FF3F03D035E0B8F1000FEB
:1022100032D0E08E0028E1D123E0206B21680078E5
:10222000087306E02068816889070AD5216B097860
:102230000173206B401C2063E08E401EE0860DE0A1
:102240002BE0FFF7EBFAA0EB0901414503D3B8F10E
:10225000FF3F03D010E0B8F1000F0DD0E08E002852
:10226000E0D14A464146204601F00AFA08B1202052
:102270006065A06830B109E084F8517084F850506E
:10228000032086E72068C1688068009084F8517058
:1022900004F8505F60680028F3D0012079E72DE949
:1022A000FF4F81B01D46934604464FF001090E9E34
:1022B000FFF7B4FA074694F851006168012806D088
:1022C000B1F5827F3CD1A168C9BB042838D10298FE
:1022D000002871D0BBF1000FFBD0002DF9D094F88D
:1022E000500001282CD04FF0010A84F850A094F837
:1022F0005100042802D0052084F851004FF0000856
:10230000C4F85480C4F838B0E587A58702992163E2
:10231000E586A586C4F84080C4F84480206801683A
:10232000490603D4016841F040010160E068B0F55E
:10233000006F606808D0F0B3012D49D081E0FFE75D
:10234000022005B0BDE8F08F08B1012D39D1206B16
:1023500021680088C860206B801C2063E08E401ECE
:10236000E0862EE02068816889070FD5E18E69B18B
:10237000B9F1010F0AD1216B0988C160206B801C63
:102380002063E08E401EE0864FF0000920688168DF
:10239000C9070CD0E18F51B1C068A16B0880A06B58
:1023A000801CA063E08F401EE0874FF00109FFF71B
:1023B00035FAC01B01E00BE067E0B04201D3701CAE
:1023C00050D1E08E0028CDD1E08F0028CAD13EE068
:1023D000206B216800780873206B401C2063E08E1E
:1023E000401EE0862DE02068816889070FD5E18EC8
:1023F00069B1B9F1010F0AD1216B09780173206B22
:10240000401C2063E08E401EE0864FF000092068EB
:102410008168C9070CD0E18F51B1C068A16B087009
:10242000A06B401CA063E08F401EE0874FF00109C5
:10243000FFF7F4F9C01BB04202D3701C01D011E0C9
:1024400086B1E08E0028CED1E08F0028CBD13A466D
:102450003146204601F014F950B12020606584F81F
:10246000508012E084F851A084F85080032068E77F
:10247000A06818B92068C1688068009084F851A0ED
:1024800084F85080606D0028F1D0012059E770B5C4
:1024900015460E46040007D0A069B0F5807F03D032
:1024A00094F8410010B107E0012070BD002084F8CD
:1024B0004000204600F01DF804F108012068FEF7F6
:1024C000CBFD3146A2682068FEF7FAFDD4E901028F
:1024D0002946236BFEF7A2FDA168206850F8212051
:1024E00042F0010240F82120012084F84100002040
:1024F00070BDFFF743B810B5401EB0F1807F01D327
:10250000012010BD4FF0E02460610F21601701F041
:1025100015FF0020A06107202061002010BD0000F1
:1025200070B590F83C20012A2CD0012480F83C4062
:10253000022280F83D2003685A689D6822F07006E8
:102540000A6832435A60104B02689A420ED00F4B11
:102550009A420BD0B2F1804F08D00D4B9A4205D071
:102560000C4B9A4202D00C4B9A4204D1496825F098
:1025700080031943916080F83D40002180F83C10B1
:10258000084670BD022070BD002C0140003401409F
:102590000004004000080040000C004000B585B079
:1025A0000021009101910291039100680F49884236
:1025B0001AD10F48816941F008018161806969463B
:1025C00000F0080004902320009002200190039066
:1025D0000848FFF71DF80848416821F4406141F0C0
:1025E000E06141F40061416005B000BD00040040BD
:1025F00000100240000C01400000014070B504468C
:1026000090F83C0000260D4601280FD0012084F8E8
:102610003C006AB1042A1DD0082A2FD00C2A3FD0D2
:102620000126002084F83C00304670BD022070BDB9
:10263000206801F0B1F92068816941F008018161E9
:102640002068816921F004018161206881692A691B
:10265000114311E0206801F0CFF92068816941F44D
:10266000006181612068816921F480618161206855
:1026700081692A6941EA02218161D2E7206801F07B
:10268000F1F92068C16941F00801C1612068C169A0
:1026900021F00401C1612068C1692A69114311E078
:1026A000206801F013FA2068C16941F40061C1613A
:1026B0002068C16921F48061C1612068C1692A690B
:1026C00041EA0221C161ACE710B5040003D094F8DF
:1026D0003D0010B107E0012010BD002084F83C004F
:1026E000204600F01FF8022084F83D00211D2068DC
:1026F00001F0F6F8012084F8460084F83E0084F8E2
:102700003F0084F8400084F8410084F8420084F8D7
:10271000430084F8440084F8450084F83D0000201C
:1027200010BD000008B500680649884208D1064877
:10273000C16941F00201C161C06900F0020000906E
:1027400008BD0000000400400010024010B504461F
:10275000022249B104290ED0082913D094F841006F
:10276000012816D0012010BD94F83E000128F9D1AF
:1027700084F83E200FE094F83F000128F2D184F85D
:102780003F2008E094F840000128EBD184F8402075
:1027900001E084F841200122206801F0EFF813499C
:1027A0002068134A884201D0904203D1436C43F41D
:1027B00000434364206888420DD090420BD0B0F1B2
:1027C000804F08D00B49884205D00B49884202D07F
:1027D0000A49884204D1816801F00701062903D023
:1027E000016841F001010160002010BD002C014092
:1027F000003401400004004000080040000C00408C
:1028000070477047F8B5016804460868CA684B69A4
:1028100010F00F0F4FF0000559D003F0010602F43D
:102820009077374365D0C10705D0D10503D5616CDA
:1028300041F001016164410705D5D90703D0616CFE
:1028400041F002016164810705D5D90703D0616CAD
:1028500041F004016164010707D502F02001314312
:1028600003D0616C41F008016164616C00293AD0C9
:10287000800604D5900602D5204601F029FC206888
:102880004069616CC0F38010090700D460B3204632
:1028900001F046FB20684069400621D520681430CD
:1028A00050E8001F21F0400140E80012002AF5D155
:1028B000E06BA8B16D494163E06BFEF7B5FD002800
:1028C00011D0E06B416B01B0BDE8F04008478306D2
:1028D0000FD593060DD52046BDE8F84001F0F8BBB2
:1028E0002046FFF78EFFF8BD2046FFF78AFF65649C
:1028F000F8BD266B2023012E7CD1C6067AD5D606DC
:1029000078D508684868009048694FF0020640068C
:1029100040D5E16B086840680004000CE8D0A28D47
:102920008242E5D9E085886920282DD020680C30C6
:1029300050E8001F21F4807140E80012002AF5D110
:102940002068143050E8001F21F0010140E8001217
:10295000002AF5D12068143050E8001F21F0400112
:1029600040E80012002AF5D184F84230256320683F
:102970000C3050E8001F21F0100140E80012002A3E
:10298000F5D1E06BFEF72CFD6663A08DE18D401A5A
:1029900081B22AE0A08DE18D401A81B2E08D00283D
:1029A000A6D00029A4D022680C3252E8000F20F4EF
:1029B000907042E80007002FF5D12068143050E8ED
:1029C000002F22F0010240E80027002FF5D184F803
:1029D0004230256320680C3050E8002F22F01002AE
:1029E00040E80023002BF5D166632046FFF708FF7F
:1029F000F8BDFFE705062BD5150629D594F841004B
:102A00002128F5D1A068B0F5805F01D12069B0B16F
:102A1000206A411C2162216800784860E08C401ED9
:102A20000004000CE084E3D12068C16821F080013B
:102A3000C1602068C16841F04001C160D8E7206AE8
:102A40000088C0F308004860206A801C2062E5E727
:102A50004006CDD55006CBD5CA68204622F04002AC
:102A6000CA6084F8413000F0E9F8C1E7113F00087E
:102A700070B5040004D094F84100002510B106E0C0
:102A8000012070BD84F84050204600F023F8242037
:102A900084F841002068C16821F40051C1602046DB
:102AA00001F07EFB2068016921F4904101612068FA
:102AB000416921F02A0141612068C16841F4005157
:102AC000C1606564202084F8410084F84200656399
:102AD000002070BD30B585B00024009401940294AC
:102AE00003940068184988422CD11848816941F440
:102AF00080418161816901F480410491816941F0E3
:102B0000040181618069124D00F0040004904FF4CB
:102B1000007000900220019003200390694628462F
:102B2000FEF776FD2815CDE9000469462846029493
:102B3000FEF76EFD002203212520FEF7CDFF2520A4
:102B4000FEF7BCFF05B030BD003801400010024068
:102B50000008014090F84230202B01D0022070473D
:102B600021B11AB10023036301F076BB0120704745
:102B7000084910B588420BD10748807901F07EFAE8
:102B800005490122BDE81040891D0248FFF7E2BF58
:102B900010BD0000C4010020240000202DE9F843EE
:102BA000044690F84100984616460D46202802D06B
:102BB0000220BDE8F88385B17EB100206064212049
:102BC00084F84100FEF72AFEA6848146E684A068C8
:102BD0002027B0F5805F02D003E00120E9E72069FB
:102BE00010B12E4600250EE000260CE08021204684
:102BF00001F04DFBA8B9C6B116F8010B2168486079
:102C0000E08C401EE084E08C4B464FF00002CDF893
:102C100000800028EAD14FF04001204601F037FB48
:102C200040B184F841700320C3E735F8020BC0F3CC
:102C30000800E3E784F841700020BAE77047FEE738
:102C400070B51E461446049D00F048F82C20C106BD
:102C50000880744300204FF0C24103E035F8102093
:102C60004A80401CA042F9D370BD70B51E46144680
:102C7000049D00F033F82C20C10608807443002026
:102C80004FF0C24101E04D80401CA042FBD370BD1B
:102C900008B500210090F0234FF4A0720846FFF71A
:102CA000E4FF08BD10B54FF0C0440120208078201B
:102CB000FEF752FC4821362000F030F855213A202A
:102CC00000F02CF8112020800A20FEF745FC292076
:102CD0002080BDE810400020FFF7DABF70B5024445
:102CE000521E94B2CA18521E93B24FF0C0452A2207
:102CF0002A804FF0C242060A5680C0B25080200A95
:102D00005080E0B250802B202880080A5080C8B242
:102D10005080180A5080D8B2508070BD4FF0C04229
:102D200010804FF0C2404180704700002DE9F04113
:102D3000044680680146FDF777FB06466068014659
:102D4000FDF772FB054620680146FDF76DFB29463D
:102D5000FDF712FB3146FDF70FFB02F0D1F80546F7
:102D600060690146FDF760FB074620690146FDF7F3
:102D70005BFB0646E0680146FDF756FB3146FDF772
:102D8000FBFA3946FDF7F8FA02F0BAF80749084AA3
:102D90002944914202D30120BDE8F08105498842CF
:102DA00001DD0220F8E70020F6E70000333333C1ED
:102DB000343353010000484338B5164C00202060DE
:102DC00000F0D6FC01236A467521682000F0FAFC69
:102DD000002804D09DF80000682801D0002038BDEC
:102DE00000226B21682000F027FD3220FEF7B4FBA3
:102DF00004221921682000F01FFD00221C216820F8
:102E000000F01AFD00221B21682000F015FD0120B2
:102E1000206038BD340000202DE9FF5F04463448AF
:102E20000068002862D0002C60D00E236A463B2147
:102E3000682000F0C7FC002855D0BDF80210BDF88E
:102E4000000049BA0FB2BDF8041040BA49BA0FFAEF
:102E500081F9BDF8061000B249BA0FFA81FABDF83F
:102E6000081049BA0EB2BDF80A1049BA0FFA81F833
:102E7000BDF80C1049BA0DB2FDF752FB6FF00D0B07
:102E80005946FDF741FB20603846FDF749FB59469E
:102E9000FDF73AFB60604846FDF742FB5946FDF7F7
:102EA00033FBA0603046FDF73BFB124E3146FDF789
:102EB000EDFAE0604046FDF733FB3146FDF7E6FAF8
:102EC00020612846FDF72CFB3146FDF7DFFA6061F3
:102ED0005046FDF725FB0849FDF7D8FA0749FDF7ED
:102EE0004BFAA061012004B0BDE8F09F0020FAE792
:102EF00034000020000003430000AA43B81E124221
:102F000000B587B01C216846FDF745F916484FF01B
:102F10002041102201601549416000218160C1609B
:102F2000C0E904128161C16113020162C0E90913A1
:102F3000C1620163416381630F20009001900290A0
:102F4000CDE903021120CDE90501002269460648BA
:102F5000FFF79DFA08B1FEF707F80548C16941F48B
:102F60008061C16107B000BD88000020040100A09D
:102F700000000140F0B585B0002546480095019558
:102F800002950395816941F040018161816901F0F9
:102F900040010491816941F010018161816901F072
:102FA00010010491816941F004018161816901F09E
:102FB00004010491816941F008018161816901F096
:102FC00008010491816941F0200181618069324EDC
:102FD00000F020000490002218213046FEF719FC72
:102FE0007B200324CDE9000469462C48FEF710FB42
:102FF0004FF6CF70CDE90004294F69463846FEF7F9
:1030000007FB49F60710CDE9000469463046FEF794
:10301000FFFA182000900120CDE90105022569463C
:1030200030460395FEF7F4FA302000901D48CDE9B4
:10303000010569463846FEF7EBFA4FF21C30CDE940
:103040000004194D69462846FEF7E2FAA0020090F6
:1030500012200190694603942846FEF7D9FA43F6F8
:103060004C00CDE9000469461048FEF7D1FA002271
:1030700005210A20FEF730FD0A20FEF71FFD002281
:1030800005211720FEF728FD1720FEF717FD05B0D4
:10309000F0BD00000010024000080140001801408F
:1030A0000010014000001110000C0140001401400C
:1030B0000D4810B50B4901600C49416000214FF4E7
:1030C00080428160C0E9031241618161C161016296
:1030D000FEF7AAFB002803D0BDE81040FDF744BF6F
:1030E00010BD000000540040D0000020A086010068
:1030F000104810B50E4901604FF482714160002103
:103100008160C1604FF400720161C0E905121022B4
:10311000C0E90721416281620A21C162FEF77AFF9C
:10312000002803D0BDE81040FDF71EBF10BD000011
:10313000003001402401002010B58AB0002407941B
:103140001C2168460894FDF726F81F481D490160B8
:1031500040F2CF71C0E90114FF21C0E9031484617A
:10316000FFF7B2FA08B1FDF7FFFE079407A916486A
:103170000894FFF7D5F908B1FDF7F6FE6020CDE918
:103180000004022002900422694604940E48FFF7CE
:1031900035FA08B1FDF7E8FE082269460A48FFF74C
:1031A0002DFA08B1FDF7E0FE0C2269460648FFF74C
:1031B00025FA08B1FDF7D8FE0348FFF7EFF90AB08A
:1031C00010BD0000000400407C0100200C4810B538
:1031D0000A4901604FF4E1314160002181600C2215
:1031E000C160C0E904128161C161FFF741FC0028A0
:1031F00003D0BDE81040FDF7B7BE10BD0038014058
:10320000C4010020FEE7FEE77047000028B1012856
:1032100005D0022805D004A0704705A0704706A07D
:10322000704707A070470000554E4B4E4F574E0059
:10323000535441424C45000046414C4C00000000B4
:103240005348414B4500000000B587B000208DF881
:10325000140026208DF8180005A8009001AB01226B
:1032600006A9262000F0ECF807B000BD70B50C46AA
:10327000054600F06FF820EA04012846BDE87040DA
:1032800000F050B970B590B0054600268DF820606A
:10329000262008AC8DF8340004AB01220DA900945F
:1032A00000F0CEF800282ED018A004AB00680E90D5
:1032B00002220EA90094932000F0C2F8002822D028
:1032C0000424002104A8425C6A54491CC9B2A142EA
:1032D00001D21029F7D30E49D1E90001CDE902014D
:1032E000002002A92A5C0B18401CC0B29A70A042B0
:1032F000F8D38DF83C600FA8009009AB072293200B
:1033000000F09EF8204610B070BD00009320000031
:10331000604F000800B587B000208DF8140006A0AB
:1033200001AB0068069005A80090042206A9502071
:1033300000F086F807B000BD5000000010B5012273
:1033400010210348FEF765FA00F030F8012010BDA7
:10335000000801407FB5134D044600221021284685
:10336000FEF757FA7E2000EA44008DF80C00642432
:10337000012301AA03A90C480094FEF790FF002046
:103380000290012301AA02A900940748FEF787FFD3
:10339000012210212846FEF73CFA9DF8040004B0F3
:1033A00070BD0000000801402401002010B51D4C34
:1033B000012208212046FEF72CFA0A20FEF7CCF85D
:1033C000002208212046FEF724FA0A20FEF7C4F85E
:1033D000012208212046FEF71CFA3220FEF7BCF835
:1033E0000F21012000F09EF86420FEF7B5F880213F
:1033F0002A2000F097F8A9212B2000F093F8032150
:103400002C2000F08FF84021152000F08BF83D2192
:10341000112000F087F80421BDE810400520FFF7D7
:1034200025BF00000008014070B50C460546FFF7B7
:1034300091FF40EA04012846BDE8704000F072B8F0
:103440002DE9F047894605469A46174677213026EA
:103450000D20DDF8208000F065F880210620FFF7C0
:1034600005FF80210E20FFF701FF80210A20FFF7D2
:10347000DBFF0021012000F055F8002407E000BF29
:1034800019F80410092000F04DF8641CE4B2BC42A5
:10349000F6D32946012000F045F8932D03D10321EE
:1034A0001420FFF7C1FFFEF7B9F900F1320546F02D
:1034B00001070420FFF74EFF0446FEF7AFF9A842CC
:1034C00007D82742F5D080210620FFF7CFFE3442EF
:1034D00002D00020BDE8F0870A20FFF73BFF04463A
:1034E0000520FFF737FF10F0070003D0E10008398F
:1034F000084400E0E00088F8000024B1102C04D952
:103500001024002503E00124FBE7002506E0092044
:10351000FFF720FF0AF805006D1CEDB2A542F6D3B7
:103520000120D7E733B50F4D044681B000221021AA
:103530002846FEF76EF97E2000EA44008DF8000070
:103540006423012269460848FEF7F6FD6423012240
:1035500002A90548FEF7F0FD012210212846FEF7DA
:1035600058F93EBD000801402401002010B5054C6B
:1035700020706170A270A380FEF750F9A060012056
:10358000E07010BD1800002010B504210848FFF7B6
:10359000DDF808210648FFF7D9F80C210448FFF7A9
:1035A000D5F800F009F803490020C87010BD0000EC
:1035B0007C0100201800002000221146104600F077
:1035C00001B80000044B10B51C68A0631868C16303
:1035D0001868026410BD00007C0100200149002031
:1035E000C8707047180000202DE9F041224CE078A7
:1035F00000283FD0FEF712F9A168461AA0880746B6
:10360000FCF797FF0546B6FBF7F007FB1060FCF7E9
:1036100090FF2946FCF73AFFB0F17C5F04DB0146DE
:103620004FF07E50FCF7FAFE0121FCF76DFF0546D6
:103630002078FCF77EFF2946FCF7F6FEFCF77EFFBC
:10364000C7B26078FCF775FF2946FCF7EDFEFCF782
:1036500075FFC6B2A078FCF76CFF2946FCF7E4FEC4
:10366000FCF76CFFC1B20548026897630268D66335
:1036700000680164BDE8F081180000207C01002092
:10368000F8B515460E460B4600920446012202216B
:1036900000F010F840B93346002280212046009502
:1036A00000F008F8002804D0606D40F0200060654C
:1036B0000320F8BD2DE9F8431E469146884604468E
:1036C000089DFEF7ABF8401B351AFEF7A7F8074632
:1036D00025480068C0F3CB30684338E0701C37D011
:1036E000FEF79CF8C01BA84203D215B1009860B346
:1036F0002CE02068416821F0E00141606068B0F58D
:10370000827F0BD1A068B0F5004F02D0B0F5806F7A
:1037100004D12068016821F040010160A06AB0F581
:10372000005F09D12068016821F400510160206820
:10373000016841F400510160012084F8510000202B
:1037400084F850000320BDE8F8830025401E009057
:103750002068816838EA010004D000214945BDD1C4
:103760000020F0E70121F9E7140000207047000075
:10377000124810B5816986B041F004018161806909
:103780000F4C00F0040004904FF4C0500090112042
:103790000190012002900320039069462046FDF726
:1037A00037FF0122D1022046FEF733F80122110330
:1037B0002046FEF72EF806B010BD000000100240B3
:1037C000000801402DE9F0411D4616460F4604460B
:1037D00001F0D2FA6006000E01F0A0FA01F014FB2D
:1037E000A8B1384601F09AFA01F00EFB78B101F069
:1037F000EBFA01F0C1FA012000EB4400C0B201F085
:103800008DFA01F001FB10B100246F1E0EE001F0F3
:10381000DBFA0020BDE8F081BC4201DA012000E0C3
:10382000002001F027FA3055641CE4B2AC42F3D317
:1038300001F0CAFA0120EDE770B515460E460446C0
:1038400001F09AFA6006000E01F068FA01F0DCFA65
:1038500078B1304601F062FA01F0D6FA48B1284654
:1038600001F05CFA01F0D0FA18B101F0ADFA0120D4
:1038700070BD01F0A9FA002070BDFEF7C7B830B5E1
:103880008FB028216846FCF786FC14210AA8FCF7B3
:1038900082FC01210804CDE90010002402940225D5
:1038A0000491CDE907504FF4E01009906846FEF707
:1038B00021FA08B172B6FEE70F20CDE90A054FF4F0
:1038C0008060CDE90C4002210AA80E94FEF736F97B
:1038D000002801D072B6FEE70FB030BD704700007F
:1038E000F0B50268204C214D214E224F224B4FF063
:1038F000804CA04209D0984207D0604505D0A8422C
:1039000003D0B04201D0B84204D122F0700E4A6810
:1039100042EA0E02A04209D0984207D0604505D085
:10392000A84203D0B04201D0B84203D122F440757E
:10393000CA682A434D6922F080022A4302608A68DD
:10394000C2620A688262A04201D0984201D109692C
:103950000163012141610169C90703D0016921F0B7
:1039600001010161F0BD0000002C01400004004095
:1039700000080040000C00400034014010B501F088
:103980001F030121046A99408C430462016A9A4032
:103990001143016210BD0000F0B5036A026A22F013
:1039A0000102026242688469124E24F073050C68B9
:1039B0002C4323F002058B682B430D4DA84201D008
:1039C000B04205D123F00807CB683B4323F0040342
:1039D000A84201D0B04205D14D6922F4407215438E
:1039E0008A692A4342608461496841630362F0BD89
:1039F000002C014000340140F0B5026A036A23F054
:103A000010030362436884690D6824F4E64444EAC1
:103A100005248D6822F0200242EA05120F4D104E57
:103A2000A84201D0B04206D1CF6822F0800242EA1B
:103A3000071222F04002A84201D0B04207D14D69DE
:103A400023F4406343EA85038D6943EA85034360B9
:103A50008461496881630262F0BD0000002C01406E
:103A600000340140F0B5026A036A23F480730362F4
:103A70004368C46922F4007224F073050C68124E86
:103A80002C438D6842EA05220E4DA84201D0B04277
:103A900006D1CF6822F4006242EA072222F4806253
:103AA000A84201D0B04207D14D6923F4405343EA04
:103AB00005138D6943EA05134360C4614968C16316
:103AC0000262F0BD002C01400034014030B5046AB0
:103AD000026A22F4805202624268C3690D6823F4CC
:103AE000E64343EA05238D6824F4005444EA053490
:103AF000084DA84202D0084DA84204D14D6922F4D5
:103B0000804242EA85124260C361496801640462EE
:103B100030BD0000002C014000340140F0B58FB0F2
:103B2000044604224FA1FCF756FB48B34FA12046A0
:103B3000FCF743FB00283FD04DA12046FCF73DFB9E
:103B4000002876D04CA12046FCF737FB002877D020
:103B50004BA12046FCF731FB002876D04AA1204635
:103B6000FCF72BFB002877D02046FCF71FFB002832
:103B700020D0214646A00FB0BDE8F04000F066BA64
:103B800001A8009002AB03AA44A12046FCF732FB37
:103B900003280FD1FFF722FD0198C2B20298C1B2EB
:103BA0000398C0B2FFF70EFDDDE902213FA0019BA3
:103BB00000F04CFA0FB0F0BD04A8FFF72DF9002873
:103BC00033D00698FCF7CEFC06460F460598FCF766
:103BD000C9FC04460D460498FCF7C4FC8DE8F000CF
:103BE00002460B4637A000F031FA0998FCF7BAFC00
:103BF00006460F460898FCF7B5FC04460D460798A4
:103C0000FCF7B0FC8DE8F00002460B4635A000F052
:103C10001DFA04A8FFF78AF8FFF7F8FA01463AA060
:103C200000F014FAC6E704E00AE03AA000F00EFA49
:103C3000C0E70020FDF7BCFA40A00EE005E00BE075
:103C40000120FDF7B5FA42A007E0FDF797FAFDF76E
:103C5000B5FA014643A08EE745A00FB0BDE8F0409D
:103C600000F0F4B96C656420000000006D70750010
:103C70006D70756F666600006D70756F6E00000088
:103C8000737461746500000068656C70000000006A
:103C90003F20272573270D0A000000006C65642073
:103CA0002564202564202564000000004F4B3A2045
:103CB0004C45443D2825642C25642C2564290D0A97
:103CC000000000004143433A20583D252E32662033
:103CD000593D252E3266205A3D252E326620670D2D
:103CE0000A0000004759524F3A20583D252E3166B0
:103CF00020593D252E3166205A3D252E31662064FF
:103D000065672F730D0A0000504F53453A20257305
:103D10000D0A00004D505536303530206E6F74203E
:103D2000666F756E642028535720493243205041F6
:103D300031312F50413132290D0A00004D505520AC
:103D4000706F6C6C696E67204F46460D0A0000006C
:103D50004D505520706F6C6C696E67204F4E0D0A88
:103D60000000000053544154453A2025730D0A00C9
:103D7000436F6D6D616E64733A206C6564205220F0
:103D80004720422C206D70752C206D70756F666613
:103D90002C206D70756F6E2C2073746174652C20EF
:103DA00068656C700D0A000010B50446FDF736FD1D
:103DB000217849B1012906D16168411A322902D31B
:103DC00002212170606010BD0121FAE70021014845
:103DD000FFF7EABFEC02002001210148FFF7E4BF32
:103DE000F802002003490020087008720C310870A6
:103DF00008727047EC0200202DE9FC5F8046FDF759
:103E00000DFD404D07460026287A38B12E72B8F1D4
:103E1000000F11D088F80060687A0BE0394C0C3440
:103E20000121207A58B12672B8F1000F04D088F829
:103E30000010607A88F801000120BDE8FC9F2A7814
:103E40000320022A08D12278022A05D128706A723A
:103E500029722070627221722B4B4FF47A7C884653
:103E6000D3E90023CDE9002300226B464FEA000985
:103E700053F822000178022909D14168791A614575
:103E800005D380F8009080F8099080F80880521CD3
:103E9000022AEDDB2878DFF874B040F2B63A022847
:103EA0000FD110215846FDF7AFFC50B96868381A99
:103EB0003238504503D285F8098085F8088085F8A6
:103EC0000090207802280FD120215846FDF79CFC55
:103ED00050B96068381A3238504503D284F80980E6
:103EE00084F8088084F800902878032802D1287A82
:103EF00000B92E702078032802D1207A00B92670EC
:103F000000209AE7EC020020584F00080010014002
:103F100010B5406A0021C185C184FEF772FC10BD56
:103F200001680C3151E8002F22F4907241E800231F
:103F3000002BF5D10168143151E8002F22F0010265
:103F400041E80023002BF5D1016B012909D101685B
:103F50000C3151E8002F22F0100241E80023002B21
:103F6000F5D1202180F84210002101637047000044
:103F7000084810B5002141710171C1718160C160B3
:103F8000811D01220448FEF7E5FDBDE8104003A0B5
:103F900000F05CB824000020C401002055415254B8
:103FA00020436F6D6D2052656164790D0A00000039
:103FB0002DE9F04100270126224C28E0A52D26D12D
:103FC000267024E06570022006E0202D00D900252F
:103FD000A570E7705DB10320207018E01A49E07801
:103FE0000D54401CC0B2E070A17888420FD3042069
:103FF000F2E7154AA178607800F02AFEA84205D1C0
:10400000A3681BB1A278104960789847277021797E
:104010006079814213D00C4920310D5C401C00F0C6
:104020007F00607120780528F1D2DFE800F00706F4
:1040300005040300DDE7D1E7C7E7C3E7BEE7BDE856
:10404000F0810000240000200C0200200FB4802129
:1040500000B5A1B023AB6846229A00F059F9684632
:10406000FCF7A4F882B2642369460348FEF796FD84
:1040700021B05DF814FB0000C401002070B5124CA3
:1040800022796379511C01F07F01994202D00F4DD2
:10409000A85421710C490D4A8032C9790D2807D0E6
:1040A0000A2805D03F2902D25054491CE17170BD45
:1040B0000029FCD000255554E16811B10348803037
:1040C0008847E57170BD0000240000202C0200200C
:1040D00008B590F84210222901D0022008BD82685C
:1040E0004FF480539A4201D1016921B1816A9A4209
:1040F0001BD04AB10AE00268816A5268C2F3080222
:104100000A80816A891C08E0026972B102685268FB
:1041100002F07F020A70816A491C8162C18D491ECA
:104120000904090CC18503D01BE002685268F1E75D
:104130000168CA6822F02002CA600168CA6822F4D5
:104140008072CA6001684A6922F001024A61202136
:1041500080F8421000214163026B012A03D0FEF770
:1041600007FD002008BD016301680C3151E8002FF4
:1041700022F0100241E80023002BF5D101680A6803
:10418000D20602D50A6849680091818DFEF738FB96
:10419000E7E700000149C8607047000024000020E4
:1041A00070B5044600680169E26821F4405111438A
:1041B00001612169A0680843616908432168CA68F0
:1041C00041F20C639A430243CA6020684169A269C4
:1041D00021F44071114341611E492068884202D197
:1041E000FDF752FD01E0FDF73FFD00EBC00101EBE3
:1041F0000012606864218000B2FBF0F3B3FBF1F3BE
:104200006FF018067343B2FBF0F5B2FBF0F605EB66
:104210008305322303EB0515B5FBF1F5B6FBF1F68B
:1042200005F0F00505EB0615B2FBF0F6B2FBF0F079
:10423000B0FBF1F06FF01802504306EB800003EB87
:104240000010B0FBF1F0216800F00F0028448860F6
:1042500070BD00000038014081628285C285002166
:104260004164222180F84210016921B10168CA68C5
:1042700042F48072CA6001684A6942F001024A61F0
:104280000068C16841F02001C160002070472DE93D
:10429000F843984617460D460446089E24E0701CD5
:1042A00022D0FDF7BBFAA0EB0800B0421AD8CEB17D
:1042B0002068C168490717D5802D15D0402D13D02F
:1042C0000168C94309070FD40168002540680090C0
:1042D0002046FFF725FE0820606484F84050012046
:1042E000BDE8F8830320FBE72068006835EA00009A
:1042F00004D00020B842D2D00020F1E70120F9E735
:104300000148FEF77FBA0000C4010020FEE700006C
:104310007CB5044600201D46164600290BD0491ED8
:10432000CDE90041044B6A462946304600F0EEF8DC
:10433000009A002111707CBD3B4C00080907090E52
:10434000002804DB00F1E02080F80014704700F042
:104350000F0000F1E02080F8141D704702E008C84B
:10436000121F08C1002AFAD170477047002001E0EF
:1043700001C1121F002AFBD17047000001490860EB
:1043800070470000840000202DE9FF5F82B000210B
:10439000DDE90430020DDDF840B0034318D044F6E7
:1043A0001050A2F2FF3242431514119801281FD079
:1043B000A5EB0B00401C5FEA000A4FF000064E4FD1
:1043C000DFF83891B046504615D5CAF1000413E025
:1043D000119801244AA3012801D16FEA0B01029828
:1043E000119AC0E90031C0E9024206B0BDE8F09F71
:1043F000CBF10000DFE704460021404A491842EBB8
:104400000450CDE9001012E0E00707D032463B46E9
:1044100040464946FCF74FFA8046894632463B46BD
:1044200010461946FCF747FA06460F466410002C62
:10443000EAD1DDE90401DDE90023BAF1000F06DA73
:10444000FCF739FA42464B46FCF735FA05E0FCF733
:10445000A4FA42464B46FCF7A0FA04460E46002258
:10446000284BFCF721FB03D84FF0FF30014607E053
:104470000022254B20463146FCF776F9FCF7FCFA82
:10448000102409E0002C0ADB0A220023FCF793F831
:10449000039B30321A55641E50EA0102F2D1641CAB
:1044A000039AC4F111031444119A012A03D0012282
:1044B00008430DD10AE0084304D000204FF0110B4F
:1044C000119072E7A3EB0B056D1E0DE05B4504DD5B
:1044D0004FF0000205F1010504E003DA4FF000029D
:1044E000A5F10105002AECD002981199C0E902312A
:1044F000C0E9004579E70000000014400000F03FEB
:10450000300000000000F0430000E03F2DE9FF4FC5
:1045100095B09B468946064600250FE2252877D1AF
:1045200000242746F84A0121059400E0044316F8C8
:10453000013F203B01FA03F01042F7D130782A28DE
:1045400011D06FF02F033078A0F13002092A16D86D
:10455000059A44F0020402EB820203EB420210448B
:10456000761C0590EFE759F8042B0592002A03DA30
:10457000504244F40054059044F00204761C307814
:104580002E2816D116F8010F44F004042A280DD065
:104590006FF02F023078A0F13003092B09D807EB18
:1045A000870302EB4303C718761CF3E759F8047B33
:1045B000761C30786C280FD006DC4C2817D0682881
:1045C0000DD06A2814D104E0742810D07A280FD1B5
:1045D0000DE044F400140AE044F4801401E044F4D3
:1045E00040147278824202D104F58014761C761C45
:1045F000307866280BD013DC582877D009DC0028E7
:1046000075D04528F6D04628F4D047281AD19DE128
:1046100018E0632835D0642879D0652812D195E157
:10462000702873D008DC6728F1D069286FD06E2815
:104630000DD06F2806D1B5E073282CD0752875D021
:10464000782874D05A46179990476D1C75E1C4F3C9
:104650000250022809D003280DD0D9F800100428F0
:104660000DD00D6009F1040967E1D9F80010EA17CF
:10467000C1E90052F6E7D9F800100D80F2E70D709D
:10468000F0E719F8041B8DF8001000208DF80100E8
:10469000EA46012003E059F804AB4FF0FF30610710
:1046A0004FF0000102D40DE008F101018846B94243
:1046B0000FDA8045F8DB1AF808100029F4D108E079
:1046C00008F1010188468142FADB1AF80810002936
:1046D000F6D105985B46A0EB080721463846179AA5
:1046E00000F094FA284400EB080507E04DE029E1CA
:1046F0000DE01AF8010B5A4617999047B8F10108D6
:10470000F7D25B4621463846179A13E142E00A2267
:104710000092C4F302524FF0000A022A08D059F85E
:1047200004CB032A4FEAEC710AD00DE029E02AE01D
:1047300009F1070121F00702F2E802C1914609E000
:104740000FFA8CFC4FEAEC71042A03D14FFA8CFC6F
:104750004FEAEC71002907DA0A460021DCF1000C6F
:1047600061EB02012D2202E0220504D52B228DF8F7
:104770000420012203E0E20701D02022F7E790465F
:1047800059E00A2102E010220DE010214FF0000A4A
:1047900000910BE010224FF0000A44F004040827B7
:1047A000009203E008224FF0000A0092C4F3025284
:1047B000022A05D059F804CB0021032A08D009E0C9
:1047C00009F1070121F00702F2E802C1914605E074
:1047D0001FFA8CFC042A01D10CF0FF0C4FF00008EA
:1047E000220728D5702806D0009B83F0100353EAD7
:1047F0000A0305D00EE040228DF80420012208E0D3
:104800005CEA010206D030228DF804208DF8050004
:1048100002229046009B83F0080353EA0A030AD160
:104820005CEA010201D1620705D530228DF804202F
:104830004FF001087F1E582804D034A003900EA822
:1048400002900DE036A0F9E753466046009AFBF768
:10485000B2FE84460398825C0298401E0290027069
:104860005CEA0100F0D1029806A9081A00F1200ABA
:10487000600702D524F4803400E00127574502DDAB
:10488000A7EB0A0000E0002000EB0A010090059869
:104890004144401A0590E00306D45B462146179A2E
:1048A000059800F0B3F90544002706E001A85A4630
:1048B000C05D179990476D1C7F1C4745F6DBE003F0
:1048C0000CD55B462146179A059800F09FF90544E0
:1048D00004E030205A46179990476D1C0099481EF5
:1048E00000900029F5DC08E0029802995A46007809
:1048F000491C0291179990476D1CBAF10001AAF169
:10490000010AF1DC65E10000092801003031323391
:1049100034353637383961626364656600000000FB
:1049200030313233343536373839414243444546E5
:104930000000000000F058F90544761C307800288B
:104940007FF4ECAD19B02846BDE8F08F620700D4C3
:10495000062709F1070222F0070CFCE80223E146D2
:1049600003F000485FEA080C02D00FF2702C0DE053
:104970005FEA045C02D50FF2682C07E05FEAC47CB2
:1049800002D00FF2602C01E0AFF2700C4FF0FF3854
:1049900023F00043CDF850C065280CD006DC452834
:1049A00009D046281DD047283DD13DE0662818D0C3
:1049B00067287ED138E00021112F01DB112000E0B3
:1049C000781CCDE9000106A90EA8FFF7DDFCDDE9A2
:1049D0000F010E9A03910021009207F1010A049140
:1049E0004DE04FF000400097CDE9011006A90EA858
:1049F000FFF7CAFCDDE90F0203920E9B119900221A
:104A0000DDF80CA00093049211B9791C00EB010AA7
:104A1000B7EB0A0004D4C0F1FF3007F1010A04909B
:104A2000AAEB0700019044E0012F00DA01270021E2
:104A3000112F01DD112000E03846CDE9000106A963
:104A40000EA8FFF7A1FCDDE90F010E9A03910021EA
:104A500004910092BA4621070CD40399514500DA1B
:104A60008A46BAF1010F05DD009AAAF10101515CF5
:104A7000302908D0B84202DA10F1040F06DA012119
:104A8000CDE9011015E0AAF10101E9E7002805DCF4
:104A9000049901440491AAEB000102E0411C514534
:104AA00000DD8A460499401A401C01904FF00040F6
:104AB0000290200704D40198504501DBCDF8048012
:104AC00000208DF84F0002980DF14F07B0F1004F14
:104AD00025D02B200E9002984FF0020800280CDA07
:104AE000404202902D200E9007E00A210298FBF729
:104AF0004CFD3031029007F8011DB8F10001A8F11A
:104B00000108F2DC02980028EFD1791E0E98087097
:104B1000307800F0200040F0450007F8020D12A8A0
:104B2000C01B00F107081498007800B1012000EBC9
:104B30000A01019801EBE07105984144401A401EBA
:104B40000590E00306D45B462146179A059800F0CD
:104B50005DF805441498007818B15A4617999047A3
:104B60006D1CE00324D55B462146179A059800F09A
:104B70004DF805441CE00498002807DBDDE903013B
:104B8000884203DD0098405C179901E017993020B6
:104B90005A469047049805F10105401C049001987D
:104BA000401E019004D12E205A46179990476D1C43
:104BB000BAF10001AAF1010ADDDC05E017F8010BEA
:104BC0005A46179990476D1CB8F10001A8F10108E9
:104BD000F4DC5B462146179A0598ABE62D000000F1
:104BE0002B000000200000002DE9F04104460025C4
:104BF0001E461746880404D405E039462020B047F5
:104C00006D1C641EF9D52846BDE8F0812DE9F04100
:104C1000044600251E469046C80301D5302700E013
:104C20002027880404D505E041463846B0476D1C6E
:104C3000641EF9D52846BDE8F0814A68002A06D0EE
:104C40000A68531C0B6010704868401E486070472B
:104C500010B54840002303E0D45C60405B1CDBB22D
:104C60008B42F9D310BDC00000E000BF401EFCD253
:104C7000704700002DE9F0470122DFF89C80814653
:104C80001503002429464046FCF7C3FD00266F109B
:104C9000AA4645466006040E012239462846FCF71E
:104CA000B8FD0420FFF7DFFF51462846FCF7ACFDB6
:104CB00008B144F00104002239462846FCF7A9FD5A
:104CC0000220FFF7D0FF761C082EE3DBB9F1000FBE
:104CD00001D0002200E0012251462846FCF799FD50
:104CE0000220FFF7C0FF012239462846FCF791FD5C
:104CF0000420FFF7B8FF002239462846FCF789FD5B
:104D00000220FFF7B0FF012251462846FCF781FD43
:104D10002046BDE8F0870000000801402DE9F04181
:104D2000144F002405464FF48058FE14280601D580
:104D3000012200E0002241463846FCF76AFD680681
:104D4000050E0220FFF78FFF012231463846FCF79F
:104D500060FD0420FFF787FF002231463846FCF74C
:104D600058FD0220FFF77FFF641C082CDEDBBDE846
:104D7000F08100000008014070B50122114D1403BC
:104D800021462846FCF745FD0520FFF76CFF012270
:104D9000D60231462846FCF73CFD0520FFF763FFAD
:104DA000002221462846FCF734FD0520FFF75BFF73
:104DB000002231462846FCF72CFDBDE87040052056
:104DC000FFF751BF0008014070B50E4D4FF48054FD
:104DD000002221462846FCF71CFD0520FFF743FF73
:104DE0000122D1022846FCF714FD0520FFF73BFF06
:104DF000012221462846FCF70CFDBDE87040052045
:104E0000FFF731BF0008014070B50122104D1403B7
:104E100021462846FCF7FDFC0122D60231462846F1
:104E2000FCF7F7FC0520FFF71EFF21462846FCF79C
:104E3000EBFC0446002231462846FCF7EAFC05203C
:104E4000FFF711FF0CB1002070BD012070BD000004
:104E500000080140FCF7E2FDFEF711FD1E48416825
:104E600021F4406141F0E06141F400614160FEF7EE
:104E700081F8FEF745F8FEF71BF9FEF739F9FEF762
:104E8000A5F9FEF759F9FDF70DFFFEF77DFBFFF7DA
:104E90006FF81248FFF77EF9FEF7A4FFFDF78CFFCD
:104EA000FEF74CFAFCF770F900240D4D2646FF275B
:104EB000286807646420FCF74FFB286806646420B8
:104EC000FCF74AFB641C032CF2DB06A0FFF7BEF8DC
:104ED000FCF7A0F9FCE70000000001401D3B0008C2
:104EE0007C0100204465736B746F7020417373699B
:104EF0007374616E742052656164790D0A0000005C
:104F000070B50546FBF701FC044620F00040C0F1F7
:104F1000FF40C00F08D025F00040C0F1FF40C00F97
:104F200004BF0120FFF72AFA204670BD01020203E8
:104F30000405060708090A0B0C0D0E0F10100000DF
:104F40000000000000000102030406070809000039
:104F50000000010203040000EC020020F80200201F
:104F6000937000000000000000000000000000003E
:104F70000000000000000000000000005050000091
:104F80000000000000000000000000000000000021
:104F90000000C800505000000000000000000000A9
:104FA00000000000000000000000F401505000006C
:104FB00000000000000000000000000000000000F1
:104FC0000000000050500000000000000000000041
:104FD00000000000000000000000E8035050000046
:104FE00000000000000000000000000000000000C1
:104FF0000000000050500000000000000000000011
:10500000000000000000000000009001505000006F
:105010000000000000000000000000000000000090
:1050200000002C0150500000DDDDDDDDDCBBBBDD10
:10503000DDDDDDDDDDDDDDDD988888888888888838
:105040007777777777888888855555566666666658
:105050006666666666688888833333322222222237
:10506000222222222228888D484F4C440000000032
:10507000444F55424C45000049444C450000000057
:105080004E4F4E4500000000414354495645000034
:1050900054415000534C454550000000494E544582
:1050A00052414354000000004C45465400000000AB
:1050B0005249474854000000414C455254000000FA
:1050C000E050000800000020880000005C43000859
:1050D0006851000888000020800600006C4300082A
:1050E00000000000000000000100000010000000AF
:1050F0000000000000127A00000000000000000024
:10510000000000000000000000000000000000009F
:10511000000000000000000000000000000000008F
:10512000010000000000000000000000000000007E
:105130000000000000000000A8500008B050000867
:1051400078500008885000089C50000894500008CF
:10515000B8500008805000089050000870500008B7
:08516000685000080000000087
:0400000508000131BD
:00000001FF
